{
  "_format": "hh-sol-artifact-1",
  "contractName": "DecenReddit",
  "sourceName": "contracts/DecenReddit.sol",
  "abi": [
    {
      "inputs": [],
      "stateMutability": "payable",
      "type": "constructor"
    },
    {
      "anonymous": false,
      "inputs": [
        {
          "indexed": false,
          "internalType": "uint256",
          "name": "threadId",
          "type": "uint256"
        },
        {
          "indexed": false,
          "internalType": "int256",
          "name": "userVote",
          "type": "int256"
        }
      ],
      "name": "NewThread",
      "type": "event"
    },
    {
      "inputs": [
        {
          "internalType": "string",
          "name": "_message",
          "type": "string"
        },
        {
          "internalType": "string",
          "name": "_title",
          "type": "string"
        }
      ],
      "name": "createThread",
      "outputs": [],
      "stateMutability": "nonpayable",
      "type": "function"
    },
    {
      "inputs": [
        {
          "internalType": "uint256",
          "name": "threadId",
          "type": "uint256"
        },
        {
          "internalType": "uint256",
          "name": "postId",
          "type": "uint256"
        }
      ],
      "name": "getPost",
      "outputs": [
        {
          "components": [
            {
              "internalType": "address",
              "name": "madeBy",
              "type": "address"
            },
            {
              "internalType": "uint256[]",
              "name": "subPosts",
              "type": "uint256[]"
            },
            {
              "internalType": "uint256",
              "name": "postId",
              "type": "uint256"
            },
            {
              "internalType": "string",
              "name": "message",
              "type": "string"
            },
            {
              "internalType": "uint256",
              "name": "timestamp",
              "type": "uint256"
            },
            {
              "internalType": "int256",
              "name": "votes",
              "type": "int256"
            }
          ],
          "internalType": "struct Posts.Post",
          "name": "",
          "type": "tuple"
        },
        {
          "internalType": "int256",
          "name": "",
          "type": "int256"
        }
      ],
      "stateMutability": "view",
      "type": "function"
    },
    {
      "inputs": [
        {
          "internalType": "uint256",
          "name": "threadId",
          "type": "uint256"
        }
      ],
      "name": "getThread",
      "outputs": [
        {
          "components": [
            {
              "internalType": "address",
              "name": "madeBy",
              "type": "address"
            },
            {
              "internalType": "string",
              "name": "title",
              "type": "string"
            },
            {
              "internalType": "string",
              "name": "message",
              "type": "string"
            },
            {
              "internalType": "uint256",
              "name": "timestamp",
              "type": "uint256"
            },
            {
              "internalType": "int256",
              "name": "votes",
              "type": "int256"
            },
            {
              "internalType": "uint256",
              "name": "threadId",
              "type": "uint256"
            },
            {
              "internalType": "contract Posts",
              "name": "posts",
              "type": "address"
            }
          ],
          "internalType": "struct DecenReddit.Thread",
          "name": "",
          "type": "tuple"
        },
        {
          "internalType": "int256",
          "name": "",
          "type": "int256"
        }
      ],
      "stateMutability": "view",
      "type": "function"
    },
    {
      "inputs": [],
      "name": "getThreadIds",
      "outputs": [
        {
          "internalType": "uint256[]",
          "name": "",
          "type": "uint256[]"
        }
      ],
      "stateMutability": "view",
      "type": "function"
    },
    {
      "inputs": [
        {
          "internalType": "uint256",
          "name": "threadId",
          "type": "uint256"
        },
        {
          "internalType": "uint256",
          "name": "postId",
          "type": "uint256"
        },
        {
          "internalType": "int256",
          "name": "udvote",
          "type": "int256"
        }
      ],
      "name": "postVote",
      "outputs": [],
      "stateMutability": "nonpayable",
      "type": "function"
    },
    {
      "inputs": [
        {
          "internalType": "uint256",
          "name": "threadId",
          "type": "uint256"
        },
        {
          "internalType": "string",
          "name": "_postMessage",
          "type": "string"
        }
      ],
      "name": "rootPost",
      "outputs": [],
      "stateMutability": "nonpayable",
      "type": "function"
    },
    {
      "inputs": [
        {
          "internalType": "uint256",
          "name": "threadId",
          "type": "uint256"
        }
      ],
      "name": "rootPostIds",
      "outputs": [
        {
          "internalType": "uint256[]",
          "name": "",
          "type": "uint256[]"
        }
      ],
      "stateMutability": "view",
      "type": "function"
    },
    {
      "inputs": [
        {
          "internalType": "uint256",
          "name": "threadId",
          "type": "uint256"
        },
        {
          "internalType": "string",
          "name": "_postMessage",
          "type": "string"
        },
        {
          "internalType": "uint256",
          "name": "_parentId",
          "type": "uint256"
        }
      ],
      "name": "subPost",
      "outputs": [],
      "stateMutability": "nonpayable",
      "type": "function"
    },
    {
      "inputs": [
        {
          "internalType": "uint256",
          "name": "threadId",
          "type": "uint256"
        },
        {
          "internalType": "int256",
          "name": "udvote",
          "type": "int256"
        }
      ],
      "name": "threadVote",
      "outputs": [],
      "stateMutability": "nonpayable",
      "type": "function"
    },
    {
      "inputs": [
        {
          "internalType": "address",
          "name": "",
          "type": "address"
        },
        {
          "internalType": "uint256",
          "name": "",
          "type": "uint256"
        }
      ],
      "name": "threadVotes",
      "outputs": [
        {
          "internalType": "int256",
          "name": "",
          "type": "int256"
        }
      ],
      "stateMutability": "view",
      "type": "function"
    },
    {
      "inputs": [
        {
          "internalType": "uint256",
          "name": "threadId",
          "type": "uint256"
        }
      ],
      "name": "totalPosts",
      "outputs": [
        {
          "internalType": "uint256",
          "name": "",
          "type": "uint256"
        }
      ],
      "stateMutability": "view",
      "type": "function"
    }
  ],
  "bytecode": "0x6080604052612de4806100136000396000f3fe608060405234801561001057600080fd5b50600436106100a95760003560e01c8063cc446ed511610071578063cc446ed51461018c578063db277323146101a8578063dde2041a146101c4578063e3cca8c3146101e2578063ebf1fa9a146101fe578063fe05939f1461022e576100a9565b80630141c466146100ae578063368f1e23146100de578063430c9b231461010f578063c4c9a9c01461013f578063cb1650b414610170575b600080fd5b6100c860048036038101906100c391906110dc565b61024a565b6040516100d591906116f1565b60405180910390f35b6100f860048036038101906100f39190611219565b61026f565b6040516101069291906117aa565b60405180910390f35b61012960048036038101906101249190611219565b6104e2565b60405161013691906117da565b60405180910390f35b61015960048036038101906101549190611362565b61059f565b60405161016792919061177a565b60405180910390f35b61018a60048036038101906101859190611159565b61067a565b005b6101a660048036038101906101a191906112fb565b61092c565b005b6101c260048036038101906101bd91906112a7565b6109d6565b005b6101cc610a7d565b6040516101d991906116cf565b60405180910390f35b6101fc60048036038101906101f7919061139e565b610ad5565b005b61021860048036038101906102139190611219565b610b7f565b60405161022591906116cf565b60405180910390f35b6102486004803603810190610243919061126b565b610c41565b005b6003602052816000526040600020602052806000526040600020600091509150505481565b610277610cc7565b600060016000848152602001908152602001600020600360003373ffffffffffffffffffffffffffffffffffffffff1673ffffffffffffffffffffffffffffffffffffffff168152602001908152602001600020600085815260200190815260200160002054816040518060e00160405290816000820160009054906101000a900473ffffffffffffffffffffffffffffffffffffffff1673ffffffffffffffffffffffffffffffffffffffff1673ffffffffffffffffffffffffffffffffffffffff16815260200160018201805461034f90611b0d565b80601f016020809104026020016040519081016040528092919081815260200182805461037b90611b0d565b80156103c85780601f1061039d576101008083540402835291602001916103c8565b820191906000526020600020905b8154815290600101906020018083116103ab57829003601f168201915b505050505081526020016002820180546103e190611b0d565b80601f016020809104026020016040519081016040528092919081815260200182805461040d90611b0d565b801561045a5780601f1061042f5761010080835404028352916020019161045a565b820191906000526020600020905b81548152906001019060200180831161043d57829003601f168201915b505050505081526020016003820154815260200160048201548152602001600582015481526020016006820160009054906101000a900473ffffffffffffffffffffffffffffffffffffffff1673ffffffffffffffffffffffffffffffffffffffff1673ffffffffffffffffffffffffffffffffffffffff1681525050915091509150915091565b60006001600083815260200190815260200160002060060160009054906101000a900473ffffffffffffffffffffffffffffffffffffffff1673ffffffffffffffffffffffffffffffffffffffff16635fe226b46040518163ffffffff1660e01b815260040160206040518083038186803b15801561056057600080fd5b505afa158015610574573d6000803e3d6000fd5b505050506040513d601f19601f820116820180604052508101906105989190611242565b9050919050565b6105a7610d30565b60006001600085815260200190815260200160002060060160009054906101000a900473ffffffffffffffffffffffffffffffffffffffff1673ffffffffffffffffffffffffffffffffffffffff16638a72263484336040518363ffffffff1660e01b815260040161061a9291906117f5565b60006040518083038186803b15801561063257600080fd5b505afa158015610646573d6000803e3d6000fd5b505050506040513d6000823e3d601f19601f8201168201806040525081019061066f91906111c5565b915091509250929050565b6040518060e001604052803373ffffffffffffffffffffffffffffffffffffffff1681526020018281526020018381526020014281526020016001815260200160005481526020016040516106ce90610d7c565b604051809103906000f0801580156106ea573d6000803e3d6000fd5b5073ffffffffffffffffffffffffffffffffffffffff16815250600160008054815260200190815260200160002060008201518160000160006101000a81548173ffffffffffffffffffffffffffffffffffffffff021916908373ffffffffffffffffffffffffffffffffffffffff160217905550602082015181600101908051906020019061077b929190610d89565b506040820151816002019080519060200190610798929190610d89565b50606082015181600301556080820151816004015560a0820151816005015560c08201518160060160006101000a81548173ffffffffffffffffffffffffffffffffffffffff021916908373ffffffffffffffffffffffffffffffffffffffff1602179055509050506001600360003373ffffffffffffffffffffffffffffffffffffffff1673ffffffffffffffffffffffffffffffffffffffff16815260200190815260200160002060008054815260200190815260200160002081905550600260005490806001815401808255809150506001900390600052602060002001600090919091909150557fb2be6724f473b4b49d0637ca60c1bf381dfefac660e2ef30e105d993102f0ec0600054600360003373ffffffffffffffffffffffffffffffffffffffff1673ffffffffffffffffffffffffffffffffffffffff16815260200190815260200160002060008054815260200190815260200160002054604051610907929190611855565b60405180910390a160016000808282546109219190611a0b565b925050819055505050565b6001600084815260200190815260200160002060060160009054906101000a900473ffffffffffffffffffffffffffffffffffffffff1673ffffffffffffffffffffffffffffffffffffffff1663aacba8e88383336040518463ffffffff1660e01b815260040161099f9392919061173c565b600060405180830381600087803b1580156109b957600080fd5b505af11580156109cd573d6000803e3d6000fd5b50505050505050565b6001600083815260200190815260200160002060060160009054906101000a900473ffffffffffffffffffffffffffffffffffffffff1673ffffffffffffffffffffffffffffffffffffffff1663e313f63182336040518363ffffffff1660e01b8152600401610a4792919061170c565b600060405180830381600087803b158015610a6157600080fd5b505af1158015610a75573d6000803e3d6000fd5b505050505050565b60606002805480602002602001604051908101604052809291908181526020018280548015610acb57602002820191906000526020600020905b815481526020019060010190808311610ab7575b5050505050905090565b6001600084815260200190815260200160002060060160009054906101000a900473ffffffffffffffffffffffffffffffffffffffff1673ffffffffffffffffffffffffffffffffffffffff1663b134a4878333846040518463ffffffff1660e01b8152600401610b489392919061181e565b600060405180830381600087803b158015610b6257600080fd5b505af1158015610b76573d6000803e3d6000fd5b50505050505050565b60606001600083815260200190815260200160002060060160009054906101000a900473ffffffffffffffffffffffffffffffffffffffff1673ffffffffffffffffffffffffffffffffffffffff166316bc55c46040518163ffffffff1660e01b815260040160006040518083038186803b158015610bfd57600080fd5b505afa158015610c11573d6000803e3d6000fd5b505050506040513d6000823e3d601f19601f82011682018060405250810190610c3a9190611118565b9050919050565b80600360003373ffffffffffffffffffffffffffffffffffffffff1673ffffffffffffffffffffffffffffffffffffffff16815260200190815260200160002060008481526020019081526020016000208190555080600160008481526020019081526020016000206004016000828254610cbc9190611977565b925050819055505050565b6040518060e00160405280600073ffffffffffffffffffffffffffffffffffffffff1681526020016060815260200160608152602001600081526020016000815260200160008152602001600073ffffffffffffffffffffffffffffffffffffffff1681525090565b6040518060c00160405280600073ffffffffffffffffffffffffffffffffffffffff16815260200160608152602001600081526020016060815260200160008152602001600081525090565b61115b80611c5483390190565b828054610d9590611b0d565b90600052602060002090601f016020900481019282610db75760008555610dfe565b82601f10610dd057805160ff1916838001178555610dfe565b82800160010185558215610dfe579182015b82811115610dfd578251825591602001919060010190610de2565b5b509050610e0b9190610e0f565b5090565b5b80821115610e28576000816000905550600101610e10565b5090565b6000610e3f610e3a846118a3565b61187e565b90508083825260208201905082856020860282011115610e5e57600080fd5b60005b85811015610e8e5781610e7488826110c7565b845260208401935060208301925050600181019050610e61565b5050509392505050565b6000610eab610ea6846118cf565b61187e565b905082815260208101848484011115610ec357600080fd5b610ece848285611acb565b509392505050565b6000610ee9610ee4846118cf565b61187e565b905082815260208101848484011115610f0157600080fd5b610f0c848285611ada565b509392505050565b600081359050610f2381611c0e565b92915050565b600081519050610f3881611c0e565b92915050565b600082601f830112610f4f57600080fd5b8151610f5f848260208601610e2c565b91505092915050565b600081359050610f7781611c25565b92915050565b600081519050610f8c81611c25565b92915050565b600082601f830112610fa357600080fd5b8135610fb3848260208601610e98565b91505092915050565b600082601f830112610fcd57600080fd5b8151610fdd848260208601610ed6565b91505092915050565b600060c08284031215610ff857600080fd5b61100260c061187e565b9050600061101284828501610f29565b600083015250602082015167ffffffffffffffff81111561103257600080fd5b61103e84828501610f3e565b6020830152506040611052848285016110c7565b604083015250606082015167ffffffffffffffff81111561107257600080fd5b61107e84828501610fbc565b6060830152506080611092848285016110c7565b60808301525060a06110a684828501610f7d565b60a08301525092915050565b6000813590506110c181611c3c565b92915050565b6000815190506110d681611c3c565b92915050565b600080604083850312156110ef57600080fd5b60006110fd85828601610f14565b925050602061110e858286016110b2565b9150509250929050565b60006020828403121561112a57600080fd5b600082015167ffffffffffffffff81111561114457600080fd5b61115084828501610f3e565b91505092915050565b6000806040838503121561116c57600080fd5b600083013567ffffffffffffffff81111561118657600080fd5b61119285828601610f92565b925050602083013567ffffffffffffffff8111156111af57600080fd5b6111bb85828601610f92565b9150509250929050565b600080604083850312156111d857600080fd5b600083015167ffffffffffffffff8111156111f257600080fd5b6111fe85828601610fe6565b925050602061120f85828601610f7d565b9150509250929050565b60006020828403121561122b57600080fd5b6000611239848285016110b2565b91505092915050565b60006020828403121561125457600080fd5b6000611262848285016110c7565b91505092915050565b6000806040838503121561127e57600080fd5b600061128c858286016110b2565b925050602061129d85828601610f68565b9150509250929050565b600080604083850312156112ba57600080fd5b60006112c8858286016110b2565b925050602083013567ffffffffffffffff8111156112e557600080fd5b6112f185828601610f92565b9150509250929050565b60008060006060848603121561131057600080fd5b600061131e868287016110b2565b935050602084013567ffffffffffffffff81111561133b57600080fd5b61134786828701610f92565b9250506040611358868287016110b2565b9150509250925092565b6000806040838503121561137557600080fd5b6000611383858286016110b2565b9250506020611394858286016110b2565b9150509250929050565b6000806000606084860312156113b357600080fd5b60006113c1868287016110b2565b93505060206113d2868287016110b2565b92505060406113e386828701610f68565b9150509250925092565b60006113f983836116b1565b60208301905092915050565b61140e81611a61565b82525050565b61141d81611a61565b82525050565b600061142e82611910565b6114388185611933565b935061144383611900565b8060005b8381101561147457815161145b88826113ed565b975061146683611926565b925050600181019050611447565b5085935050505092915050565b600061148c82611910565b6114968185611944565b93506114a183611900565b8060005b838110156114d25781516114b988826113ed565b97506114c483611926565b9250506001810190506114a5565b5085935050505092915050565b6114e881611aa7565b82525050565b6114f781611a73565b82525050565b61150681611a73565b82525050565b60006115178261191b565b6115218185611955565b9350611531818560208601611ada565b61153a81611bfd565b840191505092915050565b60006115508261191b565b61155a8185611966565b935061156a818560208601611ada565b61157381611bfd565b840191505092915050565b600060c0830160008301516115966000860182611405565b50602083015184820360208601526115ae8282611423565b91505060408301516115c360408601826116b1565b50606083015184820360608601526115db828261150c565b91505060808301516115f060808601826116b1565b5060a083015161160360a08601826114ee565b508091505092915050565b600060e0830160008301516116266000860182611405565b506020830151848203602086015261163e828261150c565b91505060408301518482036040860152611658828261150c565b915050606083015161166d60608601826116b1565b50608083015161168060808601826114ee565b5060a083015161169360a08601826116b1565b5060c08301516116a660c08601826114df565b508091505092915050565b6116ba81611a9d565b82525050565b6116c981611a9d565b82525050565b600060208201905081810360008301526116e98184611481565b905092915050565b600060208201905061170660008301846114fd565b92915050565b600060408201905081810360008301526117268185611545565b90506117356020830184611414565b9392505050565b600060608201905081810360008301526117568186611545565b905061176560208301856116c0565b6117726040830184611414565b949350505050565b60006040820190508181036000830152611794818561157e565b90506117a360208301846114fd565b9392505050565b600060408201905081810360008301526117c4818561160e565b90506117d360208301846114fd565b9392505050565b60006020820190506117ef60008301846116c0565b92915050565b600060408201905061180a60008301856116c0565b6118176020830184611414565b9392505050565b600060608201905061183360008301866116c0565b6118406020830185611414565b61184d60408301846114fd565b949350505050565b600060408201905061186a60008301856116c0565b61187760208301846114fd565b9392505050565b6000611888611899565b90506118948282611b3f565b919050565b6000604051905090565b600067ffffffffffffffff8211156118be576118bd611bce565b5b602082029050602081019050919050565b600067ffffffffffffffff8211156118ea576118e9611bce565b5b6118f382611bfd565b9050602081019050919050565b6000819050602082019050919050565b600081519050919050565b600081519050919050565b6000602082019050919050565b600082825260208201905092915050565b600082825260208201905092915050565b600082825260208201905092915050565b600082825260208201905092915050565b600061198282611a73565b915061198d83611a73565b9250817f7fffffffffffffffffffffffffffffffffffffffffffffffffffffffffffffff038313600083121516156119c8576119c7611b70565b5b817f8000000000000000000000000000000000000000000000000000000000000000038312600083121615611a00576119ff611b70565b5b828201905092915050565b6000611a1682611a9d565b9150611a2183611a9d565b9250827fffffffffffffffffffffffffffffffffffffffffffffffffffffffffffffffff03821115611a5657611a55611b70565b5b828201905092915050565b6000611a6c82611a7d565b9050919050565b6000819050919050565b600073ffffffffffffffffffffffffffffffffffffffff82169050919050565b6000819050919050565b6000611ab282611ab9565b9050919050565b6000611ac482611a7d565b9050919050565b82818337600083830152505050565b60005b83811015611af8578082015181840152602081019050611add565b83811115611b07576000848401525b50505050565b60006002820490506001821680611b2557607f821691505b60208210811415611b3957611b38611b9f565b5b50919050565b611b4882611bfd565b810181811067ffffffffffffffff82111715611b6757611b66611bce565b5b80604052505050565b7f4e487b7100000000000000000000000000000000000000000000000000000000600052601160045260246000fd5b7f4e487b7100000000000000000000000000000000000000000000000000000000600052602260045260246000fd5b7f4e487b7100000000000000000000000000000000000000000000000000000000600052604160045260246000fd5b6000601f19601f8301169050919050565b611c1781611a61565b8114611c2257600080fd5b50565b611c2e81611a73565b8114611c3957600080fd5b50565b611c4581611a9d565b8114611c5057600080fd5b5056fe6080604052611148806100136000396000f3fe608060405234801561001057600080fd5b50600436106100625760003560e01c806316bc55c4146100675780635fe226b4146100855780638a722634146100a3578063aacba8e8146100d4578063b134a487146100f0578063e313f6311461010c575b600080fd5b61006f610128565b60405161007c9190610cb1565b60405180910390f35b61008d610180565b60405161009a9190610d23565b60405180910390f35b6100bd60048036038101906100b89190610a1b565b610189565b6040516100cb929190610cf3565b60405180910390f35b6100ee60048036038101906100e991906109b4565b61036e565b005b61010a60048036038101906101059190610a57565b6104d2565b005b61012660048036038101906101219190610960565b610559565b005b6060600380548060200260200160405190810160405280929190818152602001828054801561017657602002820191906000526020600020905b815481526020019060010190808311610162575b5050505050905090565b60008054905090565b61019161077d565b600060026000858152602001908152602001600020600160008573ffffffffffffffffffffffffffffffffffffffff1673ffffffffffffffffffffffffffffffffffffffff168152602001908152602001600020600086815260200190815260200160002054816040518060c00160405290816000820160009054906101000a900473ffffffffffffffffffffffffffffffffffffffff1673ffffffffffffffffffffffffffffffffffffffff1673ffffffffffffffffffffffffffffffffffffffff168152602001600182018054806020026020016040519081016040528092919081815260200182805480156102a857602002820191906000526020600020905b815481526020019060010190808311610294575b50505050508152602001600282015481526020016003820180546102cb90610f7d565b80601f01602080910402602001604051908101604052809291908181526020018280546102f790610f7d565b80156103445780601f1061031957610100808354040283529160200191610344565b820191906000526020600020905b81548152906001019060200180831161032757829003601f168201915b50505050508152602001600482015481526020016005820154815250509150915091509250929050565b81600054116103b2576040517f08c379a00000000000000000000000000000000000000000000000000000000081526004016103a990610cd3565b60405180910390fd5b6002600083815260200190815260200160002060010160005490806001815401808255809150506001900390600052602060002001600090919091909150556103fe6000548483610664565b600260008054815260200190815260200160002060008201518160000160006101000a81548173ffffffffffffffffffffffffffffffffffffffff021916908373ffffffffffffffffffffffffffffffffffffffff16021790555060208201518160010190805190602001906104759291906107c9565b5060408201518160020155606082015181600301908051906020019061049c929190610816565b506080820151816004015560a0820151816005015590505060016000808282546104c69190610e9f565b92505081905550505050565b80600160008473ffffffffffffffffffffffffffffffffffffffff1673ffffffffffffffffffffffffffffffffffffffff1681526020019081526020016000206000858152602001908152602001600020819055508060026000858152602001908152602001600020600501600082825461054d9190610e0b565b92505081905550505050565b6105666000548383610664565b600260008054815260200190815260200160002060008201518160000160006101000a81548173ffffffffffffffffffffffffffffffffffffffff021916908373ffffffffffffffffffffffffffffffffffffffff16021790555060208201518160010190805190602001906105dd9291906107c9565b50604082015181600201556060820151816003019080519060200190610604929190610816565b506080820151816004015560a082015181600501559050506003600054908060018154018082558091505060019003906000526020600020016000909190919091505560016000808282546106599190610e9f565b925050819055505050565b61066c61077d565b60018060008473ffffffffffffffffffffffffffffffffffffffff1673ffffffffffffffffffffffffffffffffffffffff1681526020019081526020016000206000868152602001908152602001600020819055506040518060c001604052808373ffffffffffffffffffffffffffffffffffffffff168152602001600067ffffffffffffffff811115610729577f4e487b7100000000000000000000000000000000000000000000000000000000600052604160045260246000fd5b6040519080825280602002602001820160405280156107575781602001602082028036833780820191505090505b508152602001858152602001848152602001428152602001600181525090509392505050565b6040518060c00160405280600073ffffffffffffffffffffffffffffffffffffffff16815260200160608152602001600081526020016060815260200160008152602001600081525090565b828054828255906000526020600020908101928215610805579160200282015b828111156108045782518255916020019190600101906107e9565b5b509050610812919061089c565b5090565b82805461082290610f7d565b90600052602060002090601f016020900481019282610844576000855561088b565b82601f1061085d57805160ff191683800117855561088b565b8280016001018555821561088b579182015b8281111561088a57825182559160200191906001019061086f565b5b509050610898919061089c565b5090565b5b808211156108b557600081600090555060010161089d565b5090565b60006108cc6108c784610d63565b610d3e565b9050828152602081018484840111156108e457600080fd5b6108ef848285610f3b565b509392505050565b600081359050610906816110cd565b92915050565b60008135905061091b816110e4565b92915050565b600082601f83011261093257600080fd5b81356109428482602086016108b9565b91505092915050565b60008135905061095a816110fb565b92915050565b6000806040838503121561097357600080fd5b600083013567ffffffffffffffff81111561098d57600080fd5b61099985828601610921565b92505060206109aa858286016108f7565b9150509250929050565b6000806000606084860312156109c957600080fd5b600084013567ffffffffffffffff8111156109e357600080fd5b6109ef86828701610921565b9350506020610a008682870161094b565b9250506040610a11868287016108f7565b9150509250925092565b60008060408385031215610a2e57600080fd5b6000610a3c8582860161094b565b9250506020610a4d858286016108f7565b9150509250929050565b600080600060608486031215610a6c57600080fd5b6000610a7a8682870161094b565b9350506020610a8b868287016108f7565b9250506040610a9c8682870161090c565b9150509250925092565b6000610ab28383610c93565b60208301905092915050565b610ac781610ef5565b82525050565b6000610ad882610da4565b610ae28185610dc7565b9350610aed83610d94565b8060005b83811015610b1e578151610b058882610aa6565b9750610b1083610dba565b925050600181019050610af1565b5085935050505092915050565b6000610b3682610da4565b610b408185610dd8565b9350610b4b83610d94565b8060005b83811015610b7c578151610b638882610aa6565b9750610b6e83610dba565b925050600181019050610b4f565b5085935050505092915050565b610b9281610f07565b82525050565b610ba181610f07565b82525050565b6000610bb282610daf565b610bbc8185610de9565b9350610bcc818560208601610f4a565b610bd58161106d565b840191505092915050565b6000610bed602a83610dfa565b9150610bf88261107e565b604082019050919050565b600060c083016000830151610c1b6000860182610abe565b5060208301518482036020860152610c338282610acd565b9150506040830151610c486040860182610c93565b5060608301518482036060860152610c608282610ba7565b9150506080830151610c756080860182610c93565b5060a0830151610c8860a0860182610b89565b508091505092915050565b610c9c81610f31565b82525050565b610cab81610f31565b82525050565b60006020820190508181036000830152610ccb8184610b2b565b905092915050565b60006020820190508181036000830152610cec81610be0565b9050919050565b60006040820190508181036000830152610d0d8185610c03565b9050610d1c6020830184610b98565b9392505050565b6000602082019050610d386000830184610ca2565b92915050565b6000610d48610d59565b9050610d548282610faf565b919050565b6000604051905090565b600067ffffffffffffffff821115610d7e57610d7d61103e565b5b610d878261106d565b9050602081019050919050565b6000819050602082019050919050565b600081519050919050565b600081519050919050565b6000602082019050919050565b600082825260208201905092915050565b600082825260208201905092915050565b600082825260208201905092915050565b600082825260208201905092915050565b6000610e1682610f07565b9150610e2183610f07565b9250817f7fffffffffffffffffffffffffffffffffffffffffffffffffffffffffffffff03831360008312151615610e5c57610e5b610fe0565b5b817f8000000000000000000000000000000000000000000000000000000000000000038312600083121615610e9457610e93610fe0565b5b828201905092915050565b6000610eaa82610f31565b9150610eb583610f31565b9250827fffffffffffffffffffffffffffffffffffffffffffffffffffffffffffffffff03821115610eea57610ee9610fe0565b5b828201905092915050565b6000610f0082610f11565b9050919050565b6000819050919050565b600073ffffffffffffffffffffffffffffffffffffffff82169050919050565b6000819050919050565b82818337600083830152505050565b60005b83811015610f68578082015181840152602081019050610f4d565b83811115610f77576000848401525b50505050565b60006002820490506001821680610f9557607f821691505b60208210811415610fa957610fa861100f565b5b50919050565b610fb88261106d565b810181811067ffffffffffffffff82111715610fd757610fd661103e565b5b80604052505050565b7f4e487b7100000000000000000000000000000000000000000000000000000000600052601160045260246000fd5b7f4e487b7100000000000000000000000000000000000000000000000000000000600052602260045260246000fd5b7f4e487b7100000000000000000000000000000000000000000000000000000000600052604160045260246000fd5b6000601f19601f8301169050919050565b7f50726f626c656d20616464696e6720636f6d6d656e742c20696e76616c69642060008201527f5f706172656e7449642e00000000000000000000000000000000000000000000602082015250565b6110d681610ef5565b81146110e157600080fd5b50565b6110ed81610f07565b81146110f857600080fd5b50565b61110481610f31565b811461110f57600080fd5b5056fea264697066735822122021a3e23478fa903fee94938c215153d27c67f4d3beec23aadd6489727e0fcdb164736f6c63430008040033a2646970667358221220219a7604b9e478d7dd717639de940dde153f5f1226da6f1300c70e19b89f0e9164736f6c63430008040033",
  "linkReferences": {},
  "deployedLinkReferences": {}
}