{
  "_format": "hh-sol-artifact-1",
  "contractName": "DecenReddit",
  "sourceName": "contracts/DecenReddit.sol",
  "abi": [
    {
      "inputs": [],
      "stateMutability": "payable",
      "type": "constructor"
    },
    {
      "anonymous": false,
      "inputs": [
        {
          "indexed": false,
          "internalType": "uint256",
          "name": "threadId",
          "type": "uint256"
        }
      ],
      "name": "NewThread",
      "type": "event"
    },
    {
      "inputs": [
        {
          "internalType": "string",
          "name": "_message",
          "type": "string"
        },
        {
          "internalType": "string",
          "name": "_title",
          "type": "string"
        }
      ],
      "name": "createThread",
      "outputs": [],
      "stateMutability": "nonpayable",
      "type": "function"
    },
    {
      "inputs": [
        {
          "internalType": "uint256",
          "name": "threadId",
          "type": "uint256"
        },
        {
          "internalType": "uint256",
          "name": "postId",
          "type": "uint256"
        }
      ],
      "name": "getPost",
      "outputs": [
        {
          "components": [
            {
              "internalType": "address",
              "name": "madeBy",
              "type": "address"
            },
            {
              "internalType": "uint256[]",
              "name": "subPosts",
              "type": "uint256[]"
            },
            {
              "internalType": "uint256",
              "name": "postId",
              "type": "uint256"
            },
            {
              "internalType": "string",
              "name": "message",
              "type": "string"
            },
            {
              "internalType": "uint256",
              "name": "timestamp",
              "type": "uint256"
            },
            {
              "internalType": "int256",
              "name": "votes",
              "type": "int256"
            }
          ],
          "internalType": "struct Posts.Post",
          "name": "",
          "type": "tuple"
        },
        {
          "internalType": "int256",
          "name": "",
          "type": "int256"
        }
      ],
      "stateMutability": "view",
      "type": "function"
    },
    {
      "inputs": [
        {
          "internalType": "uint256",
          "name": "threadId",
          "type": "uint256"
        }
      ],
      "name": "getThread",
      "outputs": [
        {
          "components": [
            {
              "internalType": "address",
              "name": "madeBy",
              "type": "address"
            },
            {
              "internalType": "string",
              "name": "title",
              "type": "string"
            },
            {
              "internalType": "string",
              "name": "message",
              "type": "string"
            },
            {
              "internalType": "uint256",
              "name": "timestamp",
              "type": "uint256"
            },
            {
              "internalType": "int256",
              "name": "votes",
              "type": "int256"
            },
            {
              "internalType": "uint256",
              "name": "threadId",
              "type": "uint256"
            },
            {
              "internalType": "contract Posts",
              "name": "posts",
              "type": "address"
            }
          ],
          "internalType": "struct DecenReddit.Thread",
          "name": "",
          "type": "tuple"
        },
        {
          "internalType": "int256",
          "name": "",
          "type": "int256"
        }
      ],
      "stateMutability": "view",
      "type": "function"
    },
    {
      "inputs": [],
      "name": "getThreadIds",
      "outputs": [
        {
          "internalType": "uint256[]",
          "name": "",
          "type": "uint256[]"
        }
      ],
      "stateMutability": "view",
      "type": "function"
    },
    {
      "inputs": [
        {
          "internalType": "uint256",
          "name": "threadId",
          "type": "uint256"
        },
        {
          "internalType": "int256",
          "name": "randoVal",
          "type": "int256"
        }
      ],
      "name": "getVote",
      "outputs": [
        {
          "internalType": "int256",
          "name": "",
          "type": "int256"
        }
      ],
      "stateMutability": "nonpayable",
      "type": "function"
    },
    {
      "inputs": [
        {
          "internalType": "uint256",
          "name": "threadId",
          "type": "uint256"
        },
        {
          "internalType": "uint256",
          "name": "postId",
          "type": "uint256"
        },
        {
          "internalType": "int256",
          "name": "udvote",
          "type": "int256"
        }
      ],
      "name": "postVote",
      "outputs": [],
      "stateMutability": "nonpayable",
      "type": "function"
    },
    {
      "inputs": [
        {
          "internalType": "uint256",
          "name": "threadId",
          "type": "uint256"
        },
        {
          "internalType": "string",
          "name": "_postMessage",
          "type": "string"
        }
      ],
      "name": "rootPost",
      "outputs": [],
      "stateMutability": "nonpayable",
      "type": "function"
    },
    {
      "inputs": [
        {
          "internalType": "uint256",
          "name": "threadId",
          "type": "uint256"
        }
      ],
      "name": "rootPostIds",
      "outputs": [
        {
          "internalType": "uint256[]",
          "name": "",
          "type": "uint256[]"
        }
      ],
      "stateMutability": "view",
      "type": "function"
    },
    {
      "inputs": [
        {
          "internalType": "uint256",
          "name": "threadId",
          "type": "uint256"
        },
        {
          "internalType": "string",
          "name": "_postMessage",
          "type": "string"
        },
        {
          "internalType": "uint256",
          "name": "_parentId",
          "type": "uint256"
        }
      ],
      "name": "subPost",
      "outputs": [],
      "stateMutability": "nonpayable",
      "type": "function"
    },
    {
      "inputs": [
        {
          "internalType": "uint256",
          "name": "threadId",
          "type": "uint256"
        },
        {
          "internalType": "int256",
          "name": "udvote",
          "type": "int256"
        }
      ],
      "name": "threadVote",
      "outputs": [],
      "stateMutability": "nonpayable",
      "type": "function"
    },
    {
      "inputs": [
        {
          "internalType": "address",
          "name": "",
          "type": "address"
        },
        {
          "internalType": "uint256",
          "name": "",
          "type": "uint256"
        }
      ],
      "name": "threadVotes",
      "outputs": [
        {
          "internalType": "int256",
          "name": "",
          "type": "int256"
        }
      ],
      "stateMutability": "view",
      "type": "function"
    },
    {
      "inputs": [
        {
          "internalType": "uint256",
          "name": "threadId",
          "type": "uint256"
        }
      ],
      "name": "totalPosts",
      "outputs": [
        {
          "internalType": "uint256",
          "name": "",
          "type": "uint256"
        }
      ],
      "stateMutability": "view",
      "type": "function"
    }
  ],
  "bytecode": "0x6080604052612e53806100136000396000f3fe608060405234801561001057600080fd5b50600436106100b45760003560e01c8063cc446ed511610071578063cc446ed5146101c7578063db277323146101e3578063dde2041a146101ff578063e3cca8c31461021d578063ebf1fa9a14610239578063fe05939f14610269576100b4565b80630141c466146100b9578063368f1e23146100e9578063430c9b231461011a5780639f9809d81461014a578063c4c9a9c01461017a578063cb1650b4146101ab575b600080fd5b6100d360048036038101906100ce9190611174565b610285565b6040516100e09190611789565b60405180910390f35b61010360048036038101906100fe91906112b1565b6102aa565b604051610111929190611842565b60405180910390f35b610134600480360381019061012f91906112b1565b61051d565b6040516101419190611872565b60405180910390f35b610164600480360381019061015f9190611303565b6105da565b6040516101719190611789565b60405180910390f35b610194600480360381019061018f91906113fa565b61068a565b6040516101a2929190611812565b60405180910390f35b6101c560048036038101906101c091906111f1565b610765565b005b6101e160048036038101906101dc9190611393565b6109c4565b005b6101fd60048036038101906101f8919061133f565b610a6e565b005b610207610b15565b6040516102149190611767565b60405180910390f35b61023760048036038101906102329190611436565b610b6d565b005b610253600480360381019061024e91906112b1565b610c17565b6040516102609190611767565b60405180910390f35b610283600480360381019061027e9190611303565b610cd9565b005b6002602052816000526040600020602052806000526040600020600091509150505481565b6102b2610d5f565b600060016000848152602001908152602001600020600260003373ffffffffffffffffffffffffffffffffffffffff1673ffffffffffffffffffffffffffffffffffffffff168152602001908152602001600020600085815260200190815260200160002054816040518060e00160405290816000820160009054906101000a900473ffffffffffffffffffffffffffffffffffffffff1673ffffffffffffffffffffffffffffffffffffffff1673ffffffffffffffffffffffffffffffffffffffff16815260200160018201805461038a90611b7c565b80601f01602080910402602001604051908101604052809291908181526020018280546103b690611b7c565b80156104035780601f106103d857610100808354040283529160200191610403565b820191906000526020600020905b8154815290600101906020018083116103e657829003601f168201915b5050505050815260200160028201805461041c90611b7c565b80601f016020809104026020016040519081016040528092919081815260200182805461044890611b7c565b80156104955780601f1061046a57610100808354040283529160200191610495565b820191906000526020600020905b81548152906001019060200180831161047857829003601f168201915b505050505081526020016003820154815260200160048201548152602001600582015481526020016006820160009054906101000a900473ffffffffffffffffffffffffffffffffffffffff1673ffffffffffffffffffffffffffffffffffffffff1673ffffffffffffffffffffffffffffffffffffffff1681525050915091509150915091565b60006001600083815260200190815260200160002060060160009054906101000a900473ffffffffffffffffffffffffffffffffffffffff1673ffffffffffffffffffffffffffffffffffffffff16635fe226b46040518163ffffffff1660e01b815260040160206040518083038186803b15801561059b57600080fd5b505afa1580156105af573d6000803e3d6000fd5b505050506040513d601f19601f820116820180604052508101906105d391906112da565b9050919050565b600081600260003373ffffffffffffffffffffffffffffffffffffffff1673ffffffffffffffffffffffffffffffffffffffff168152602001908152602001600020600085815260200190815260200160002081905550600260003373ffffffffffffffffffffffffffffffffffffffff1673ffffffffffffffffffffffffffffffffffffffff168152602001908152602001600020600084815260200190815260200160002054905092915050565b610692610dc8565b60006001600085815260200190815260200160002060060160009054906101000a900473ffffffffffffffffffffffffffffffffffffffff1673ffffffffffffffffffffffffffffffffffffffff16638a72263484336040518363ffffffff1660e01b815260040161070592919061188d565b60006040518083038186803b15801561071d57600080fd5b505afa158015610731573d6000803e3d6000fd5b505050506040513d6000823e3d601f19601f8201168201806040525081019061075a919061125d565b915091509250929050565b6040518060e001604052803373ffffffffffffffffffffffffffffffffffffffff1681526020018281526020018381526020014281526020016001815260200160005481526020016040516107b990610e14565b604051809103906000f0801580156107d5573d6000803e3d6000fd5b5073ffffffffffffffffffffffffffffffffffffffff16815250600160008054815260200190815260200160002060008201518160000160006101000a81548173ffffffffffffffffffffffffffffffffffffffff021916908373ffffffffffffffffffffffffffffffffffffffff1602179055506020820151816001019080519060200190610866929190610e21565b506040820151816002019080519060200190610883929190610e21565b50606082015181600301556080820151816004015560a0820151816005015560c08201518160060160006101000a81548173ffffffffffffffffffffffffffffffffffffffff021916908373ffffffffffffffffffffffffffffffffffffffff1602179055509050506001600260003373ffffffffffffffffffffffffffffffffffffffff1673ffffffffffffffffffffffffffffffffffffffff16815260200190815260200160002060008054815260200190815260200160002081905550600360005490806001815401808255809150506001900390600052602060002001600090919091909150557f2a65ba4cec4b8be9d22d18643e69c34ee5f9c57ca702ede08587cb0e129b390f60005460405161099f9190611872565b60405180910390a160016000808282546109b99190611a7a565b925050819055505050565b6001600084815260200190815260200160002060060160009054906101000a900473ffffffffffffffffffffffffffffffffffffffff1673ffffffffffffffffffffffffffffffffffffffff1663aacba8e88383336040518463ffffffff1660e01b8152600401610a37939291906117d4565b600060405180830381600087803b158015610a5157600080fd5b505af1158015610a65573d6000803e3d6000fd5b50505050505050565b6001600083815260200190815260200160002060060160009054906101000a900473ffffffffffffffffffffffffffffffffffffffff1673ffffffffffffffffffffffffffffffffffffffff1663e313f63182336040518363ffffffff1660e01b8152600401610adf9291906117a4565b600060405180830381600087803b158015610af957600080fd5b505af1158015610b0d573d6000803e3d6000fd5b505050505050565b60606003805480602002602001604051908101604052809291908181526020018280548015610b6357602002820191906000526020600020905b815481526020019060010190808311610b4f575b5050505050905090565b6001600084815260200190815260200160002060060160009054906101000a900473ffffffffffffffffffffffffffffffffffffffff1673ffffffffffffffffffffffffffffffffffffffff1663b134a4878333846040518463ffffffff1660e01b8152600401610be0939291906118b6565b600060405180830381600087803b158015610bfa57600080fd5b505af1158015610c0e573d6000803e3d6000fd5b50505050505050565b60606001600083815260200190815260200160002060060160009054906101000a900473ffffffffffffffffffffffffffffffffffffffff1673ffffffffffffffffffffffffffffffffffffffff166316bc55c46040518163ffffffff1660e01b815260040160006040518083038186803b158015610c9557600080fd5b505afa158015610ca9573d6000803e3d6000fd5b505050506040513d6000823e3d601f19601f82011682018060405250810190610cd291906111b0565b9050919050565b80600260003373ffffffffffffffffffffffffffffffffffffffff1673ffffffffffffffffffffffffffffffffffffffff16815260200190815260200160002060008481526020019081526020016000208190555080600160008481526020019081526020016000206004016000828254610d5491906119e6565b925050819055505050565b6040518060e00160405280600073ffffffffffffffffffffffffffffffffffffffff1681526020016060815260200160608152602001600081526020016000815260200160008152602001600073ffffffffffffffffffffffffffffffffffffffff1681525090565b6040518060c00160405280600073ffffffffffffffffffffffffffffffffffffffff16815260200160608152602001600081526020016060815260200160008152602001600081525090565b61115b80611cc383390190565b828054610e2d90611b7c565b90600052602060002090601f016020900481019282610e4f5760008555610e96565b82601f10610e6857805160ff1916838001178555610e96565b82800160010185558215610e96579182015b82811115610e95578251825591602001919060010190610e7a565b5b509050610ea39190610ea7565b5090565b5b80821115610ec0576000816000905550600101610ea8565b5090565b6000610ed7610ed284611912565b6118ed565b90508083825260208201905082856020860282011115610ef657600080fd5b60005b85811015610f265781610f0c888261115f565b845260208401935060208301925050600181019050610ef9565b5050509392505050565b6000610f43610f3e8461193e565b6118ed565b905082815260208101848484011115610f5b57600080fd5b610f66848285611b3a565b509392505050565b6000610f81610f7c8461193e565b6118ed565b905082815260208101848484011115610f9957600080fd5b610fa4848285611b49565b509392505050565b600081359050610fbb81611c7d565b92915050565b600081519050610fd081611c7d565b92915050565b600082601f830112610fe757600080fd5b8151610ff7848260208601610ec4565b91505092915050565b60008135905061100f81611c94565b92915050565b60008151905061102481611c94565b92915050565b600082601f83011261103b57600080fd5b813561104b848260208601610f30565b91505092915050565b600082601f83011261106557600080fd5b8151611075848260208601610f6e565b91505092915050565b600060c0828403121561109057600080fd5b61109a60c06118ed565b905060006110aa84828501610fc1565b600083015250602082015167ffffffffffffffff8111156110ca57600080fd5b6110d684828501610fd6565b60208301525060406110ea8482850161115f565b604083015250606082015167ffffffffffffffff81111561110a57600080fd5b61111684828501611054565b606083015250608061112a8482850161115f565b60808301525060a061113e84828501611015565b60a08301525092915050565b60008135905061115981611cab565b92915050565b60008151905061116e81611cab565b92915050565b6000806040838503121561118757600080fd5b600061119585828601610fac565b92505060206111a68582860161114a565b9150509250929050565b6000602082840312156111c257600080fd5b600082015167ffffffffffffffff8111156111dc57600080fd5b6111e884828501610fd6565b91505092915050565b6000806040838503121561120457600080fd5b600083013567ffffffffffffffff81111561121e57600080fd5b61122a8582860161102a565b925050602083013567ffffffffffffffff81111561124757600080fd5b6112538582860161102a565b9150509250929050565b6000806040838503121561127057600080fd5b600083015167ffffffffffffffff81111561128a57600080fd5b6112968582860161107e565b92505060206112a785828601611015565b9150509250929050565b6000602082840312156112c357600080fd5b60006112d18482850161114a565b91505092915050565b6000602082840312156112ec57600080fd5b60006112fa8482850161115f565b91505092915050565b6000806040838503121561131657600080fd5b60006113248582860161114a565b925050602061133585828601611000565b9150509250929050565b6000806040838503121561135257600080fd5b60006113608582860161114a565b925050602083013567ffffffffffffffff81111561137d57600080fd5b6113898582860161102a565b9150509250929050565b6000806000606084860312156113a857600080fd5b60006113b68682870161114a565b935050602084013567ffffffffffffffff8111156113d357600080fd5b6113df8682870161102a565b92505060406113f08682870161114a565b9150509250925092565b6000806040838503121561140d57600080fd5b600061141b8582860161114a565b925050602061142c8582860161114a565b9150509250929050565b60008060006060848603121561144b57600080fd5b60006114598682870161114a565b935050602061146a8682870161114a565b925050604061147b86828701611000565b9150509250925092565b60006114918383611749565b60208301905092915050565b6114a681611ad0565b82525050565b6114b581611ad0565b82525050565b60006114c68261197f565b6114d081856119a2565b93506114db8361196f565b8060005b8381101561150c5781516114f38882611485565b97506114fe83611995565b9250506001810190506114df565b5085935050505092915050565b60006115248261197f565b61152e81856119b3565b93506115398361196f565b8060005b8381101561156a5781516115518882611485565b975061155c83611995565b92505060018101905061153d565b5085935050505092915050565b61158081611b16565b82525050565b61158f81611ae2565b82525050565b61159e81611ae2565b82525050565b60006115af8261198a565b6115b981856119c4565b93506115c9818560208601611b49565b6115d281611c6c565b840191505092915050565b60006115e88261198a565b6115f281856119d5565b9350611602818560208601611b49565b61160b81611c6c565b840191505092915050565b600060c08301600083015161162e600086018261149d565b506020830151848203602086015261164682826114bb565b915050604083015161165b6040860182611749565b506060830151848203606086015261167382826115a4565b91505060808301516116886080860182611749565b5060a083015161169b60a0860182611586565b508091505092915050565b600060e0830160008301516116be600086018261149d565b50602083015184820360208601526116d682826115a4565b915050604083015184820360408601526116f082826115a4565b91505060608301516117056060860182611749565b5060808301516117186080860182611586565b5060a083015161172b60a0860182611749565b5060c083015161173e60c0860182611577565b508091505092915050565b61175281611b0c565b82525050565b61176181611b0c565b82525050565b600060208201905081810360008301526117818184611519565b905092915050565b600060208201905061179e6000830184611595565b92915050565b600060408201905081810360008301526117be81856115dd565b90506117cd60208301846114ac565b9392505050565b600060608201905081810360008301526117ee81866115dd565b90506117fd6020830185611758565b61180a60408301846114ac565b949350505050565b6000604082019050818103600083015261182c8185611616565b905061183b6020830184611595565b9392505050565b6000604082019050818103600083015261185c81856116a6565b905061186b6020830184611595565b9392505050565b60006020820190506118876000830184611758565b92915050565b60006040820190506118a26000830185611758565b6118af60208301846114ac565b9392505050565b60006060820190506118cb6000830186611758565b6118d860208301856114ac565b6118e56040830184611595565b949350505050565b60006118f7611908565b90506119038282611bae565b919050565b6000604051905090565b600067ffffffffffffffff82111561192d5761192c611c3d565b5b602082029050602081019050919050565b600067ffffffffffffffff82111561195957611958611c3d565b5b61196282611c6c565b9050602081019050919050565b6000819050602082019050919050565b600081519050919050565b600081519050919050565b6000602082019050919050565b600082825260208201905092915050565b600082825260208201905092915050565b600082825260208201905092915050565b600082825260208201905092915050565b60006119f182611ae2565b91506119fc83611ae2565b9250817f7fffffffffffffffffffffffffffffffffffffffffffffffffffffffffffffff03831360008312151615611a3757611a36611bdf565b5b817f8000000000000000000000000000000000000000000000000000000000000000038312600083121615611a6f57611a6e611bdf565b5b828201905092915050565b6000611a8582611b0c565b9150611a9083611b0c565b9250827fffffffffffffffffffffffffffffffffffffffffffffffffffffffffffffffff03821115611ac557611ac4611bdf565b5b828201905092915050565b6000611adb82611aec565b9050919050565b6000819050919050565b600073ffffffffffffffffffffffffffffffffffffffff82169050919050565b6000819050919050565b6000611b2182611b28565b9050919050565b6000611b3382611aec565b9050919050565b82818337600083830152505050565b60005b83811015611b67578082015181840152602081019050611b4c565b83811115611b76576000848401525b50505050565b60006002820490506001821680611b9457607f821691505b60208210811415611ba857611ba7611c0e565b5b50919050565b611bb782611c6c565b810181811067ffffffffffffffff82111715611bd657611bd5611c3d565b5b80604052505050565b7f4e487b7100000000000000000000000000000000000000000000000000000000600052601160045260246000fd5b7f4e487b7100000000000000000000000000000000000000000000000000000000600052602260045260246000fd5b7f4e487b7100000000000000000000000000000000000000000000000000000000600052604160045260246000fd5b6000601f19601f8301169050919050565b611c8681611ad0565b8114611c9157600080fd5b50565b611c9d81611ae2565b8114611ca857600080fd5b50565b611cb481611b0c565b8114611cbf57600080fd5b5056fe6080604052611148806100136000396000f3fe608060405234801561001057600080fd5b50600436106100625760003560e01c806316bc55c4146100675780635fe226b4146100855780638a722634146100a3578063aacba8e8146100d4578063b134a487146100f0578063e313f6311461010c575b600080fd5b61006f610128565b60405161007c9190610cb1565b60405180910390f35b61008d610180565b60405161009a9190610d23565b60405180910390f35b6100bd60048036038101906100b89190610a1b565b610189565b6040516100cb929190610cf3565b60405180910390f35b6100ee60048036038101906100e991906109b4565b61036e565b005b61010a60048036038101906101059190610a57565b6104d2565b005b61012660048036038101906101219190610960565b610559565b005b6060600380548060200260200160405190810160405280929190818152602001828054801561017657602002820191906000526020600020905b815481526020019060010190808311610162575b5050505050905090565b60008054905090565b61019161077d565b600060026000858152602001908152602001600020600160008573ffffffffffffffffffffffffffffffffffffffff1673ffffffffffffffffffffffffffffffffffffffff168152602001908152602001600020600086815260200190815260200160002054816040518060c00160405290816000820160009054906101000a900473ffffffffffffffffffffffffffffffffffffffff1673ffffffffffffffffffffffffffffffffffffffff1673ffffffffffffffffffffffffffffffffffffffff168152602001600182018054806020026020016040519081016040528092919081815260200182805480156102a857602002820191906000526020600020905b815481526020019060010190808311610294575b50505050508152602001600282015481526020016003820180546102cb90610f7d565b80601f01602080910402602001604051908101604052809291908181526020018280546102f790610f7d565b80156103445780601f1061031957610100808354040283529160200191610344565b820191906000526020600020905b81548152906001019060200180831161032757829003601f168201915b50505050508152602001600482015481526020016005820154815250509150915091509250929050565b81600054116103b2576040517f08c379a00000000000000000000000000000000000000000000000000000000081526004016103a990610cd3565b60405180910390fd5b6002600083815260200190815260200160002060010160005490806001815401808255809150506001900390600052602060002001600090919091909150556103fe6000548483610664565b600260008054815260200190815260200160002060008201518160000160006101000a81548173ffffffffffffffffffffffffffffffffffffffff021916908373ffffffffffffffffffffffffffffffffffffffff16021790555060208201518160010190805190602001906104759291906107c9565b5060408201518160020155606082015181600301908051906020019061049c929190610816565b506080820151816004015560a0820151816005015590505060016000808282546104c69190610e9f565b92505081905550505050565b80600160008473ffffffffffffffffffffffffffffffffffffffff1673ffffffffffffffffffffffffffffffffffffffff1681526020019081526020016000206000858152602001908152602001600020819055508060026000858152602001908152602001600020600501600082825461054d9190610e0b565b92505081905550505050565b6105666000548383610664565b600260008054815260200190815260200160002060008201518160000160006101000a81548173ffffffffffffffffffffffffffffffffffffffff021916908373ffffffffffffffffffffffffffffffffffffffff16021790555060208201518160010190805190602001906105dd9291906107c9565b50604082015181600201556060820151816003019080519060200190610604929190610816565b506080820151816004015560a082015181600501559050506003600054908060018154018082558091505060019003906000526020600020016000909190919091505560016000808282546106599190610e9f565b925050819055505050565b61066c61077d565b60018060008473ffffffffffffffffffffffffffffffffffffffff1673ffffffffffffffffffffffffffffffffffffffff1681526020019081526020016000206000868152602001908152602001600020819055506040518060c001604052808373ffffffffffffffffffffffffffffffffffffffff168152602001600067ffffffffffffffff811115610729577f4e487b7100000000000000000000000000000000000000000000000000000000600052604160045260246000fd5b6040519080825280602002602001820160405280156107575781602001602082028036833780820191505090505b508152602001858152602001848152602001428152602001600181525090509392505050565b6040518060c00160405280600073ffffffffffffffffffffffffffffffffffffffff16815260200160608152602001600081526020016060815260200160008152602001600081525090565b828054828255906000526020600020908101928215610805579160200282015b828111156108045782518255916020019190600101906107e9565b5b509050610812919061089c565b5090565b82805461082290610f7d565b90600052602060002090601f016020900481019282610844576000855561088b565b82601f1061085d57805160ff191683800117855561088b565b8280016001018555821561088b579182015b8281111561088a57825182559160200191906001019061086f565b5b509050610898919061089c565b5090565b5b808211156108b557600081600090555060010161089d565b5090565b60006108cc6108c784610d63565b610d3e565b9050828152602081018484840111156108e457600080fd5b6108ef848285610f3b565b509392505050565b600081359050610906816110cd565b92915050565b60008135905061091b816110e4565b92915050565b600082601f83011261093257600080fd5b81356109428482602086016108b9565b91505092915050565b60008135905061095a816110fb565b92915050565b6000806040838503121561097357600080fd5b600083013567ffffffffffffffff81111561098d57600080fd5b61099985828601610921565b92505060206109aa858286016108f7565b9150509250929050565b6000806000606084860312156109c957600080fd5b600084013567ffffffffffffffff8111156109e357600080fd5b6109ef86828701610921565b9350506020610a008682870161094b565b9250506040610a11868287016108f7565b9150509250925092565b60008060408385031215610a2e57600080fd5b6000610a3c8582860161094b565b9250506020610a4d858286016108f7565b9150509250929050565b600080600060608486031215610a6c57600080fd5b6000610a7a8682870161094b565b9350506020610a8b868287016108f7565b9250506040610a9c8682870161090c565b9150509250925092565b6000610ab28383610c93565b60208301905092915050565b610ac781610ef5565b82525050565b6000610ad882610da4565b610ae28185610dc7565b9350610aed83610d94565b8060005b83811015610b1e578151610b058882610aa6565b9750610b1083610dba565b925050600181019050610af1565b5085935050505092915050565b6000610b3682610da4565b610b408185610dd8565b9350610b4b83610d94565b8060005b83811015610b7c578151610b638882610aa6565b9750610b6e83610dba565b925050600181019050610b4f565b5085935050505092915050565b610b9281610f07565b82525050565b610ba181610f07565b82525050565b6000610bb282610daf565b610bbc8185610de9565b9350610bcc818560208601610f4a565b610bd58161106d565b840191505092915050565b6000610bed602a83610dfa565b9150610bf88261107e565b604082019050919050565b600060c083016000830151610c1b6000860182610abe565b5060208301518482036020860152610c338282610acd565b9150506040830151610c486040860182610c93565b5060608301518482036060860152610c608282610ba7565b9150506080830151610c756080860182610c93565b5060a0830151610c8860a0860182610b89565b508091505092915050565b610c9c81610f31565b82525050565b610cab81610f31565b82525050565b60006020820190508181036000830152610ccb8184610b2b565b905092915050565b60006020820190508181036000830152610cec81610be0565b9050919050565b60006040820190508181036000830152610d0d8185610c03565b9050610d1c6020830184610b98565b9392505050565b6000602082019050610d386000830184610ca2565b92915050565b6000610d48610d59565b9050610d548282610faf565b919050565b6000604051905090565b600067ffffffffffffffff821115610d7e57610d7d61103e565b5b610d878261106d565b9050602081019050919050565b6000819050602082019050919050565b600081519050919050565b600081519050919050565b6000602082019050919050565b600082825260208201905092915050565b600082825260208201905092915050565b600082825260208201905092915050565b600082825260208201905092915050565b6000610e1682610f07565b9150610e2183610f07565b9250817f7fffffffffffffffffffffffffffffffffffffffffffffffffffffffffffffff03831360008312151615610e5c57610e5b610fe0565b5b817f8000000000000000000000000000000000000000000000000000000000000000038312600083121615610e9457610e93610fe0565b5b828201905092915050565b6000610eaa82610f31565b9150610eb583610f31565b9250827fffffffffffffffffffffffffffffffffffffffffffffffffffffffffffffffff03821115610eea57610ee9610fe0565b5b828201905092915050565b6000610f0082610f11565b9050919050565b6000819050919050565b600073ffffffffffffffffffffffffffffffffffffffff82169050919050565b6000819050919050565b82818337600083830152505050565b60005b83811015610f68578082015181840152602081019050610f4d565b83811115610f77576000848401525b50505050565b60006002820490506001821680610f9557607f821691505b60208210811415610fa957610fa861100f565b5b50919050565b610fb88261106d565b810181811067ffffffffffffffff82111715610fd757610fd661103e565b5b80604052505050565b7f4e487b7100000000000000000000000000000000000000000000000000000000600052601160045260246000fd5b7f4e487b7100000000000000000000000000000000000000000000000000000000600052602260045260246000fd5b7f4e487b7100000000000000000000000000000000000000000000000000000000600052604160045260246000fd5b6000601f19601f8301169050919050565b7f50726f626c656d20616464696e6720636f6d6d656e742c20696e76616c69642060008201527f5f706172656e7449642e00000000000000000000000000000000000000000000602082015250565b6110d681610ef5565b81146110e157600080fd5b50565b6110ed81610f07565b81146110f857600080fd5b50565b61110481610f31565b811461110f57600080fd5b5056fea264697066735822122021a3e23478fa903fee94938c215153d27c67f4d3beec23aadd6489727e0fcdb164736f6c63430008040033a2646970667358221220df71e0469a4e7dad088d025ce01009138daff9bdf8880950a6853399f19e432664736f6c63430008040033",
  "linkReferences": {},
  "deployedLinkReferences": {}
}