{
  "_format": "hh-sol-artifact-1",
  "contractName": "DecenReddit",
  "sourceName": "contracts/DecenReddit.sol",
  "abi": [
    {
      "inputs": [],
      "stateMutability": "payable",
      "type": "constructor"
    },
    {
      "anonymous": false,
      "inputs": [
        {
          "indexed": false,
          "internalType": "uint256",
          "name": "threadId",
          "type": "uint256"
        }
      ],
      "name": "NewThread",
      "type": "event"
    },
    {
      "inputs": [
        {
          "internalType": "string",
          "name": "_message",
          "type": "string"
        },
        {
          "internalType": "string",
          "name": "_title",
          "type": "string"
        }
      ],
      "name": "createThread",
      "outputs": [],
      "stateMutability": "nonpayable",
      "type": "function"
    },
    {
      "inputs": [
        {
          "internalType": "uint256",
          "name": "threadId",
          "type": "uint256"
        },
        {
          "internalType": "uint256",
          "name": "postId",
          "type": "uint256"
        }
      ],
      "name": "getPost",
      "outputs": [
        {
          "components": [
            {
              "internalType": "address",
              "name": "madeBy",
              "type": "address"
            },
            {
              "internalType": "uint256[]",
              "name": "subPosts",
              "type": "uint256[]"
            },
            {
              "internalType": "uint256",
              "name": "postId",
              "type": "uint256"
            },
            {
              "internalType": "string",
              "name": "message",
              "type": "string"
            },
            {
              "internalType": "uint256",
              "name": "timestamp",
              "type": "uint256"
            },
            {
              "internalType": "uint256",
              "name": "likes",
              "type": "uint256"
            }
          ],
          "internalType": "struct Posts.Post",
          "name": "",
          "type": "tuple"
        }
      ],
      "stateMutability": "view",
      "type": "function"
    },
    {
      "inputs": [
        {
          "internalType": "uint256",
          "name": "threadId",
          "type": "uint256"
        }
      ],
      "name": "getThread",
      "outputs": [
        {
          "components": [
            {
              "internalType": "address",
              "name": "madeBy",
              "type": "address"
            },
            {
              "internalType": "string",
              "name": "title",
              "type": "string"
            },
            {
              "internalType": "string",
              "name": "message",
              "type": "string"
            },
            {
              "internalType": "uint256",
              "name": "timestamp",
              "type": "uint256"
            },
            {
              "internalType": "int256",
              "name": "likes",
              "type": "int256"
            },
            {
              "internalType": "uint256",
              "name": "threadId",
              "type": "uint256"
            },
            {
              "internalType": "contract Posts",
              "name": "posts",
              "type": "address"
            }
          ],
          "internalType": "struct DecenReddit.Thread",
          "name": "",
          "type": "tuple"
        }
      ],
      "stateMutability": "view",
      "type": "function"
    },
    {
      "inputs": [],
      "name": "getThreadIds",
      "outputs": [
        {
          "internalType": "uint256[]",
          "name": "",
          "type": "uint256[]"
        }
      ],
      "stateMutability": "view",
      "type": "function"
    },
    {
      "inputs": [
        {
          "internalType": "uint256",
          "name": "threadId",
          "type": "uint256"
        },
        {
          "internalType": "string",
          "name": "_postMessage",
          "type": "string"
        }
      ],
      "name": "rootPost",
      "outputs": [],
      "stateMutability": "nonpayable",
      "type": "function"
    },
    {
      "inputs": [
        {
          "internalType": "uint256",
          "name": "threadId",
          "type": "uint256"
        }
      ],
      "name": "rootPostIds",
      "outputs": [
        {
          "internalType": "uint256[]",
          "name": "",
          "type": "uint256[]"
        }
      ],
      "stateMutability": "view",
      "type": "function"
    },
    {
      "inputs": [
        {
          "internalType": "uint256",
          "name": "threadId",
          "type": "uint256"
        },
        {
          "internalType": "string",
          "name": "_postMessage",
          "type": "string"
        },
        {
          "internalType": "uint256",
          "name": "_parentId",
          "type": "uint256"
        }
      ],
      "name": "subPost",
      "outputs": [],
      "stateMutability": "nonpayable",
      "type": "function"
    },
    {
      "inputs": [
        {
          "internalType": "uint256",
          "name": "threadId",
          "type": "uint256"
        }
      ],
      "name": "totalPosts",
      "outputs": [
        {
          "internalType": "uint256",
          "name": "",
          "type": "uint256"
        }
      ],
      "stateMutability": "view",
      "type": "function"
    }
  ],
  "bytecode": "0x60806040526125b2806100136000396000f3fe608060405234801561001057600080fd5b50600436106100885760003560e01c8063cc446ed51161005b578063cc446ed514610139578063db27732314610155578063dde2041a14610171578063ebf1fa9a1461018f57610088565b8063368f1e231461008d578063430c9b23146100bd578063c4c9a9c0146100ed578063cb1650b41461011d575b600080fd5b6100a760048036038101906100a29190610ea2565b6101bf565b6040516100b49190611370565b60405180910390f35b6100d760048036038101906100d29190610ea2565b6103da565b6040516100e49190611392565b60405180910390f35b61010760048036038101906101029190610faf565b610497565b604051610114919061134e565b60405180910390f35b61013760048036038101906101329190610df5565b61056b565b005b610153600480360381019061014e9190610f48565b610773565b005b61016f600480360381019061016a9190610ef4565b61081d565b005b6101796108c4565b60405161018691906112be565b60405180910390f35b6101a960048036038101906101a49190610ea2565b61091c565b6040516101b691906112be565b60405180910390f35b6101c76109de565b600160008381526020019081526020016000206040518060e00160405290816000820160009054906101000a900473ffffffffffffffffffffffffffffffffffffffff1673ffffffffffffffffffffffffffffffffffffffff1673ffffffffffffffffffffffffffffffffffffffff16815260200160018201805461024b906115a8565b80601f0160208091040260200160405190810160405280929190818152602001828054610277906115a8565b80156102c45780601f10610299576101008083540402835291602001916102c4565b820191906000526020600020905b8154815290600101906020018083116102a757829003601f168201915b505050505081526020016002820180546102dd906115a8565b80601f0160208091040260200160405190810160405280929190818152602001828054610309906115a8565b80156103565780601f1061032b57610100808354040283529160200191610356565b820191906000526020600020905b81548152906001019060200180831161033957829003601f168201915b505050505081526020016003820154815260200160048201548152602001600582015481526020016006820160009054906101000a900473ffffffffffffffffffffffffffffffffffffffff1673ffffffffffffffffffffffffffffffffffffffff1673ffffffffffffffffffffffffffffffffffffffff16815250509050919050565b60006001600083815260200190815260200160002060060160009054906101000a900473ffffffffffffffffffffffffffffffffffffffff1673ffffffffffffffffffffffffffffffffffffffff16635fe226b46040518163ffffffff1660e01b815260040160206040518083038186803b15801561045857600080fd5b505afa15801561046c573d6000803e3d6000fd5b505050506040513d601f19601f820116820180604052508101906104909190610ecb565b9050919050565b61049f610a47565b6001600084815260200190815260200160002060060160009054906101000a900473ffffffffffffffffffffffffffffffffffffffff1673ffffffffffffffffffffffffffffffffffffffff166340731c24836040518263ffffffff1660e01b815260040161050e9190611392565b60006040518083038186803b15801561052657600080fd5b505afa15801561053a573d6000803e3d6000fd5b505050506040513d6000823e3d601f19601f820116820180604052508101906105639190610e61565b905092915050565b6040518060e001604052803373ffffffffffffffffffffffffffffffffffffffff1681526020018281526020018381526020014281526020016001815260200160005481526020016040516105bf90610a93565b604051809103906000f0801580156105db573d6000803e3d6000fd5b5073ffffffffffffffffffffffffffffffffffffffff16815250600160008054815260200190815260200160002060008201518160000160006101000a81548173ffffffffffffffffffffffffffffffffffffffff021916908373ffffffffffffffffffffffffffffffffffffffff160217905550602082015181600101908051906020019061066c929190610aa0565b506040820151816002019080519060200190610689929190610aa0565b50606082015181600301556080820151816004015560a0820151816005015560c08201518160060160006101000a81548173ffffffffffffffffffffffffffffffffffffffff021916908373ffffffffffffffffffffffffffffffffffffffff160217905550905050600260005490806001815401808255809150506001900390600052602060002001600090919091909150557f2a65ba4cec4b8be9d22d18643e69c34ee5f9c57ca702ede08587cb0e129b390f60005460405161074e9190611392565b60405180910390a1600160008082825461076891906114a6565b925050819055505050565b6001600084815260200190815260200160002060060160009054906101000a900473ffffffffffffffffffffffffffffffffffffffff1673ffffffffffffffffffffffffffffffffffffffff1663aacba8e88383336040518463ffffffff1660e01b81526004016107e693929190611310565b600060405180830381600087803b15801561080057600080fd5b505af1158015610814573d6000803e3d6000fd5b50505050505050565b6001600083815260200190815260200160002060060160009054906101000a900473ffffffffffffffffffffffffffffffffffffffff1673ffffffffffffffffffffffffffffffffffffffff1663e313f63182336040518363ffffffff1660e01b815260040161088e9291906112e0565b600060405180830381600087803b1580156108a857600080fd5b505af11580156108bc573d6000803e3d6000fd5b505050505050565b6060600280548060200260200160405190810160405280929190818152602001828054801561091257602002820191906000526020600020905b8154815260200190600101908083116108fe575b5050505050905090565b60606001600083815260200190815260200160002060060160009054906101000a900473ffffffffffffffffffffffffffffffffffffffff1673ffffffffffffffffffffffffffffffffffffffff166316bc55c46040518163ffffffff1660e01b815260040160006040518083038186803b15801561099a57600080fd5b505afa1580156109ae573d6000803e3d6000fd5b505050506040513d6000823e3d601f19601f820116820180604052508101906109d79190610db4565b9050919050565b6040518060e00160405280600073ffffffffffffffffffffffffffffffffffffffff1681526020016060815260200160608152602001600081526020016000815260200160008152602001600073ffffffffffffffffffffffffffffffffffffffff1681525090565b6040518060c00160405280600073ffffffffffffffffffffffffffffffffffffffff16815260200160608152602001600081526020016060815260200160008152602001600081525090565b610ea5806116d883390190565b828054610aac906115a8565b90600052602060002090601f016020900481019282610ace5760008555610b15565b82601f10610ae757805160ff1916838001178555610b15565b82800160010185558215610b15579182015b82811115610b14578251825591602001919060010190610af9565b5b509050610b229190610b26565b5090565b5b80821115610b3f576000816000905550600101610b27565b5090565b6000610b56610b51846113d2565b6113ad565b90508083825260208201905082856020860282011115610b7557600080fd5b60005b85811015610ba55781610b8b8882610d9f565b845260208401935060208301925050600181019050610b78565b5050509392505050565b6000610bc2610bbd846113fe565b6113ad565b905082815260208101848484011115610bda57600080fd5b610be5848285611566565b509392505050565b6000610c00610bfb846113fe565b6113ad565b905082815260208101848484011115610c1857600080fd5b610c23848285611575565b509392505050565b600081519050610c3a816116a9565b92915050565b600082601f830112610c5157600080fd5b8151610c61848260208601610b43565b91505092915050565b600082601f830112610c7b57600080fd5b8135610c8b848260208601610baf565b91505092915050565b600082601f830112610ca557600080fd5b8151610cb5848260208601610bed565b91505092915050565b600060c08284031215610cd057600080fd5b610cda60c06113ad565b90506000610cea84828501610c2b565b600083015250602082015167ffffffffffffffff811115610d0a57600080fd5b610d1684828501610c40565b6020830152506040610d2a84828501610d9f565b604083015250606082015167ffffffffffffffff811115610d4a57600080fd5b610d5684828501610c94565b6060830152506080610d6a84828501610d9f565b60808301525060a0610d7e84828501610d9f565b60a08301525092915050565b600081359050610d99816116c0565b92915050565b600081519050610dae816116c0565b92915050565b600060208284031215610dc657600080fd5b600082015167ffffffffffffffff811115610de057600080fd5b610dec84828501610c40565b91505092915050565b60008060408385031215610e0857600080fd5b600083013567ffffffffffffffff811115610e2257600080fd5b610e2e85828601610c6a565b925050602083013567ffffffffffffffff811115610e4b57600080fd5b610e5785828601610c6a565b9150509250929050565b600060208284031215610e7357600080fd5b600082015167ffffffffffffffff811115610e8d57600080fd5b610e9984828501610cbe565b91505092915050565b600060208284031215610eb457600080fd5b6000610ec284828501610d8a565b91505092915050565b600060208284031215610edd57600080fd5b6000610eeb84828501610d9f565b91505092915050565b60008060408385031215610f0757600080fd5b6000610f1585828601610d8a565b925050602083013567ffffffffffffffff811115610f3257600080fd5b610f3e85828601610c6a565b9150509250929050565b600080600060608486031215610f5d57600080fd5b6000610f6b86828701610d8a565b935050602084013567ffffffffffffffff811115610f8857600080fd5b610f9486828701610c6a565b9250506040610fa586828701610d8a565b9150509250925092565b60008060408385031215610fc257600080fd5b6000610fd085828601610d8a565b9250506020610fe185828601610d8a565b9150509250929050565b6000610ff783836112a0565b60208301905092915050565b61100c816114fc565b82525050565b61101b816114fc565b82525050565b600061102c8261143f565b6110368185611462565b93506110418361142f565b8060005b838110156110725781516110598882610feb565b975061106483611455565b925050600181019050611045565b5085935050505092915050565b600061108a8261143f565b6110948185611473565b935061109f8361142f565b8060005b838110156110d05781516110b78882610feb565b97506110c283611455565b9250506001810190506110a3565b5085935050505092915050565b6110e681611542565b82525050565b6110f58161150e565b82525050565b60006111068261144a565b6111108185611484565b9350611120818560208601611575565b61112981611698565b840191505092915050565b600061113f8261144a565b6111498185611495565b9350611159818560208601611575565b61116281611698565b840191505092915050565b600060c0830160008301516111856000860182611003565b506020830151848203602086015261119d8282611021565b91505060408301516111b260408601826112a0565b50606083015184820360608601526111ca82826110fb565b91505060808301516111df60808601826112a0565b5060a08301516111f260a08601826112a0565b508091505092915050565b600060e0830160008301516112156000860182611003565b506020830151848203602086015261122d82826110fb565b9150506040830151848203604086015261124782826110fb565b915050606083015161125c60608601826112a0565b50608083015161126f60808601826110ec565b5060a083015161128260a08601826112a0565b5060c083015161129560c08601826110dd565b508091505092915050565b6112a981611538565b82525050565b6112b881611538565b82525050565b600060208201905081810360008301526112d8818461107f565b905092915050565b600060408201905081810360008301526112fa8185611134565b90506113096020830184611012565b9392505050565b6000606082019050818103600083015261132a8186611134565b905061133960208301856112af565b6113466040830184611012565b949350505050565b60006020820190508181036000830152611368818461116d565b905092915050565b6000602082019050818103600083015261138a81846111fd565b905092915050565b60006020820190506113a760008301846112af565b92915050565b60006113b76113c8565b90506113c382826115da565b919050565b6000604051905090565b600067ffffffffffffffff8211156113ed576113ec611669565b5b602082029050602081019050919050565b600067ffffffffffffffff82111561141957611418611669565b5b61142282611698565b9050602081019050919050565b6000819050602082019050919050565b600081519050919050565b600081519050919050565b6000602082019050919050565b600082825260208201905092915050565b600082825260208201905092915050565b600082825260208201905092915050565b600082825260208201905092915050565b60006114b182611538565b91506114bc83611538565b9250827fffffffffffffffffffffffffffffffffffffffffffffffffffffffffffffffff038211156114f1576114f061160b565b5b828201905092915050565b600061150782611518565b9050919050565b6000819050919050565b600073ffffffffffffffffffffffffffffffffffffffff82169050919050565b6000819050919050565b600061154d82611554565b9050919050565b600061155f82611518565b9050919050565b82818337600083830152505050565b60005b83811015611593578082015181840152602081019050611578565b838111156115a2576000848401525b50505050565b600060028204905060018216806115c057607f821691505b602082108114156115d4576115d361163a565b5b50919050565b6115e382611698565b810181811067ffffffffffffffff8211171561160257611601611669565b5b80604052505050565b7f4e487b7100000000000000000000000000000000000000000000000000000000600052601160045260246000fd5b7f4e487b7100000000000000000000000000000000000000000000000000000000600052602260045260246000fd5b7f4e487b7100000000000000000000000000000000000000000000000000000000600052604160045260246000fd5b6000601f19601f8301169050919050565b6116b2816114fc565b81146116bd57600080fd5b50565b6116c981611538565b81146116d457600080fd5b5056fe6080604052610e92806100136000396000f3fe608060405234801561001057600080fd5b50600436106100575760003560e01c806316bc55c41461005c57806340731c241461007a5780635fe226b4146100aa578063aacba8e8146100c8578063e313f631146100e4575b600080fd5b610064610100565b6040516100719190610abe565b60405180910390f35b610094600480360381019061008f91906108a8565b610158565b6040516100a19190610b00565b60405180910390f35b6100b26102e3565b6040516100bf9190610b22565b60405180910390f35b6100e260048036038101906100dd9190610841565b6102ec565b005b6100fe60048036038101906100f991906107ed565b610450565b005b6060600280548060200260200160405190810160405280929190818152602001828054801561014e57602002820191906000526020600020905b81548152602001906001019080831161013a575b5050505050905090565b61016061061f565b600160008381526020019081526020016000206040518060c00160405290816000820160009054906101000a900473ffffffffffffffffffffffffffffffffffffffff1673ffffffffffffffffffffffffffffffffffffffff1673ffffffffffffffffffffffffffffffffffffffff1681526020016001820180548060200260200160405190810160405280929190818152602001828054801561022357602002820191906000526020600020905b81548152602001906001019080831161020f575b505050505081526020016002820154815260200160038201805461024690610cde565b80601f016020809104026020016040519081016040528092919081815260200182805461027290610cde565b80156102bf5780601f10610294576101008083540402835291602001916102bf565b820191906000526020600020905b8154815290600101906020018083116102a257829003601f168201915b50505050508152602001600482015481526020016005820154815250509050919050565b60008054905090565b8160005411610330576040517f08c379a000000000000000000000000000000000000000000000000000000000815260040161032790610ae0565b60405180910390fd5b60016000838152602001908152602001600020600101600054908060018154018082558091505060019003906000526020600020016000909190919091505561037c600054848361055b565b600160008054815260200190815260200160002060008201518160000160006101000a81548173ffffffffffffffffffffffffffffffffffffffff021916908373ffffffffffffffffffffffffffffffffffffffff16021790555060208201518160010190805190602001906103f392919061066b565b5060408201518160020155606082015181600301908051906020019061041a9291906106b8565b506080820151816004015560a0820151816005015590505060016000808282546104449190610c0a565b92505081905550505050565b61045d600054838361055b565b600160008054815260200190815260200160002060008201518160000160006101000a81548173ffffffffffffffffffffffffffffffffffffffff021916908373ffffffffffffffffffffffffffffffffffffffff16021790555060208201518160010190805190602001906104d492919061066b565b506040820151816002015560608201518160030190805190602001906104fb9291906106b8565b506080820151816004015560a082015181600501559050506002600054908060018154018082558091505060019003906000526020600020016000909190919091505560016000808282546105509190610c0a565b925050819055505050565b61056361061f565b6040518060c001604052808373ffffffffffffffffffffffffffffffffffffffff168152602001600067ffffffffffffffff8111156105cb577f4e487b7100000000000000000000000000000000000000000000000000000000600052604160045260246000fd5b6040519080825280602002602001820160405280156105f95781602001602082028036833780820191505090505b508152602001858152602001848152602001428152602001600181525090509392505050565b6040518060c00160405280600073ffffffffffffffffffffffffffffffffffffffff16815260200160608152602001600081526020016060815260200160008152602001600081525090565b8280548282559060005260206000209081019282156106a7579160200282015b828111156106a657825182559160200191906001019061068b565b5b5090506106b4919061073e565b5090565b8280546106c490610cde565b90600052602060002090601f0160209004810192826106e6576000855561072d565b82601f106106ff57805160ff191683800117855561072d565b8280016001018555821561072d579182015b8281111561072c578251825591602001919060010190610711565b5b50905061073a919061073e565b5090565b5b8082111561075757600081600090555060010161073f565b5090565b600061076e61076984610b62565b610b3d565b90508281526020810184848401111561078657600080fd5b610791848285610c9c565b509392505050565b6000813590506107a881610e2e565b92915050565b600082601f8301126107bf57600080fd5b81356107cf84826020860161075b565b91505092915050565b6000813590506107e781610e45565b92915050565b6000806040838503121561080057600080fd5b600083013567ffffffffffffffff81111561081a57600080fd5b610826858286016107ae565b925050602061083785828601610799565b9150509250929050565b60008060006060848603121561085657600080fd5b600084013567ffffffffffffffff81111561087057600080fd5b61087c868287016107ae565b935050602061088d868287016107d8565b925050604061089e86828701610799565b9150509250925092565b6000602082840312156108ba57600080fd5b60006108c8848285016107d8565b91505092915050565b60006108dd8383610aa0565b60208301905092915050565b6108f281610c60565b82525050565b600061090382610ba3565b61090d8185610bc6565b935061091883610b93565b8060005b8381101561094957815161093088826108d1565b975061093b83610bb9565b92505060018101905061091c565b5085935050505092915050565b600061096182610ba3565b61096b8185610bd7565b935061097683610b93565b8060005b838110156109a757815161098e88826108d1565b975061099983610bb9565b92505060018101905061097a565b5085935050505092915050565b60006109bf82610bae565b6109c98185610be8565b93506109d9818560208601610cab565b6109e281610dce565b840191505092915050565b60006109fa602a83610bf9565b9150610a0582610ddf565b604082019050919050565b600060c083016000830151610a2860008601826108e9565b5060208301518482036020860152610a4082826108f8565b9150506040830151610a556040860182610aa0565b5060608301518482036060860152610a6d82826109b4565b9150506080830151610a826080860182610aa0565b5060a0830151610a9560a0860182610aa0565b508091505092915050565b610aa981610c92565b82525050565b610ab881610c92565b82525050565b60006020820190508181036000830152610ad88184610956565b905092915050565b60006020820190508181036000830152610af9816109ed565b9050919050565b60006020820190508181036000830152610b1a8184610a10565b905092915050565b6000602082019050610b376000830184610aaf565b92915050565b6000610b47610b58565b9050610b538282610d10565b919050565b6000604051905090565b600067ffffffffffffffff821115610b7d57610b7c610d9f565b5b610b8682610dce565b9050602081019050919050565b6000819050602082019050919050565b600081519050919050565b600081519050919050565b6000602082019050919050565b600082825260208201905092915050565b600082825260208201905092915050565b600082825260208201905092915050565b600082825260208201905092915050565b6000610c1582610c92565b9150610c2083610c92565b9250827fffffffffffffffffffffffffffffffffffffffffffffffffffffffffffffffff03821115610c5557610c54610d41565b5b828201905092915050565b6000610c6b82610c72565b9050919050565b600073ffffffffffffffffffffffffffffffffffffffff82169050919050565b6000819050919050565b82818337600083830152505050565b60005b83811015610cc9578082015181840152602081019050610cae565b83811115610cd8576000848401525b50505050565b60006002820490506001821680610cf657607f821691505b60208210811415610d0a57610d09610d70565b5b50919050565b610d1982610dce565b810181811067ffffffffffffffff82111715610d3857610d37610d9f565b5b80604052505050565b7f4e487b7100000000000000000000000000000000000000000000000000000000600052601160045260246000fd5b7f4e487b7100000000000000000000000000000000000000000000000000000000600052602260045260246000fd5b7f4e487b7100000000000000000000000000000000000000000000000000000000600052604160045260246000fd5b6000601f19601f8301169050919050565b7f50726f626c656d20616464696e6720636f6d6d656e742c20696e76616c69642060008201527f5f706172656e7449642e00000000000000000000000000000000000000000000602082015250565b610e3781610c60565b8114610e4257600080fd5b50565b610e4e81610c92565b8114610e5957600080fd5b5056fea26469706673582212200249b516c98bc42b8984ee88d8436f7fa6e6102d23bcab8c02af7f566e661aaf64736f6c63430008040033a2646970667358221220e74ea52a99eb0dd8b8f80b51bda82229090604114d1ef2d1f4f4e35e208e9d5e64736f6c63430008040033",
  "linkReferences": {},
  "deployedLinkReferences": {}
}