{
  "_format": "hh-sol-artifact-1",
  "contractName": "DecenReddit",
  "sourceName": "contracts/DecenReddit.sol",
  "abi": [
    {
      "inputs": [],
      "stateMutability": "payable",
      "type": "constructor"
    },
    {
      "inputs": [
        {
          "internalType": "string",
          "name": "_message",
          "type": "string"
        },
        {
          "internalType": "string",
          "name": "_title",
          "type": "string"
        }
      ],
      "name": "createThread",
      "outputs": [],
      "stateMutability": "nonpayable",
      "type": "function"
    },
    {
      "inputs": [
        {
          "internalType": "uint256",
          "name": "threadId",
          "type": "uint256"
        },
        {
          "internalType": "uint256",
          "name": "postId",
          "type": "uint256"
        }
      ],
      "name": "getPost",
      "outputs": [
        {
          "components": [
            {
              "internalType": "address",
              "name": "madeBy",
              "type": "address"
            },
            {
              "internalType": "uint256[]",
              "name": "subPosts",
              "type": "uint256[]"
            },
            {
              "internalType": "uint256",
              "name": "postId",
              "type": "uint256"
            },
            {
              "internalType": "string",
              "name": "message",
              "type": "string"
            },
            {
              "internalType": "uint256",
              "name": "timestamp",
              "type": "uint256"
            },
            {
              "internalType": "uint256",
              "name": "likes",
              "type": "uint256"
            }
          ],
          "internalType": "struct Posts.Post",
          "name": "",
          "type": "tuple"
        }
      ],
      "stateMutability": "view",
      "type": "function"
    },
    {
      "inputs": [
        {
          "internalType": "uint256",
          "name": "threadId",
          "type": "uint256"
        }
      ],
      "name": "getThread",
      "outputs": [
        {
          "components": [
            {
              "internalType": "address",
              "name": "madeBy",
              "type": "address"
            },
            {
              "internalType": "string",
              "name": "title",
              "type": "string"
            },
            {
              "internalType": "string",
              "name": "message",
              "type": "string"
            },
            {
              "internalType": "uint256",
              "name": "timestamp",
              "type": "uint256"
            },
            {
              "internalType": "int256",
              "name": "likes",
              "type": "int256"
            },
            {
              "internalType": "uint256",
              "name": "threadId",
              "type": "uint256"
            },
            {
              "internalType": "contract Posts",
              "name": "posts",
              "type": "address"
            }
          ],
          "internalType": "struct DecenReddit.Thread",
          "name": "",
          "type": "tuple"
        }
      ],
      "stateMutability": "view",
      "type": "function"
    },
    {
      "inputs": [],
      "name": "getThreadIds",
      "outputs": [
        {
          "internalType": "uint256[]",
          "name": "",
          "type": "uint256[]"
        }
      ],
      "stateMutability": "view",
      "type": "function"
    },
    {
      "inputs": [
        {
          "internalType": "uint256",
          "name": "threadId",
          "type": "uint256"
        },
        {
          "internalType": "string",
          "name": "_postMessage",
          "type": "string"
        }
      ],
      "name": "rootPost",
      "outputs": [],
      "stateMutability": "nonpayable",
      "type": "function"
    },
    {
      "inputs": [
        {
          "internalType": "uint256",
          "name": "threadId",
          "type": "uint256"
        }
      ],
      "name": "rootPostIds",
      "outputs": [
        {
          "internalType": "uint256[]",
          "name": "",
          "type": "uint256[]"
        }
      ],
      "stateMutability": "view",
      "type": "function"
    },
    {
      "inputs": [
        {
          "internalType": "uint256",
          "name": "threadId",
          "type": "uint256"
        },
        {
          "internalType": "string",
          "name": "_postMessage",
          "type": "string"
        },
        {
          "internalType": "uint256",
          "name": "_parentId",
          "type": "uint256"
        }
      ],
      "name": "subPost",
      "outputs": [],
      "stateMutability": "nonpayable",
      "type": "function"
    },
    {
      "inputs": [
        {
          "internalType": "uint256",
          "name": "threadId",
          "type": "uint256"
        }
      ],
      "name": "totalPosts",
      "outputs": [
        {
          "internalType": "uint256",
          "name": "",
          "type": "uint256"
        }
      ],
      "stateMutability": "view",
      "type": "function"
    }
  ],
  "bytecode": "0x6080604052612579806100136000396000f3fe608060405234801561001057600080fd5b50600436106100885760003560e01c8063cc446ed51161005b578063cc446ed514610139578063db27732314610155578063dde2041a14610171578063ebf1fa9a1461018f57610088565b8063368f1e231461008d578063430c9b23146100bd578063c4c9a9c0146100ed578063cb1650b41461011d575b600080fd5b6100a760048036038101906100a29190610e69565b6101bf565b6040516100b49190611337565b60405180910390f35b6100d760048036038101906100d29190610e69565b6103da565b6040516100e49190611359565b60405180910390f35b61010760048036038101906101029190610f76565b610497565b6040516101149190611315565b60405180910390f35b61013760048036038101906101329190610dbc565b61056b565b005b610153600480360381019061014e9190610f0f565b61073a565b005b61016f600480360381019061016a9190610ebb565b6107e4565b005b61017961088b565b6040516101869190611285565b60405180910390f35b6101a960048036038101906101a49190610e69565b6108e3565b6040516101b69190611285565b60405180910390f35b6101c76109a5565b600160008381526020019081526020016000206040518060e00160405290816000820160009054906101000a900473ffffffffffffffffffffffffffffffffffffffff1673ffffffffffffffffffffffffffffffffffffffff1673ffffffffffffffffffffffffffffffffffffffff16815260200160018201805461024b9061156f565b80601f01602080910402602001604051908101604052809291908181526020018280546102779061156f565b80156102c45780601f10610299576101008083540402835291602001916102c4565b820191906000526020600020905b8154815290600101906020018083116102a757829003601f168201915b505050505081526020016002820180546102dd9061156f565b80601f01602080910402602001604051908101604052809291908181526020018280546103099061156f565b80156103565780601f1061032b57610100808354040283529160200191610356565b820191906000526020600020905b81548152906001019060200180831161033957829003601f168201915b505050505081526020016003820154815260200160048201548152602001600582015481526020016006820160009054906101000a900473ffffffffffffffffffffffffffffffffffffffff1673ffffffffffffffffffffffffffffffffffffffff1673ffffffffffffffffffffffffffffffffffffffff16815250509050919050565b60006001600083815260200190815260200160002060060160009054906101000a900473ffffffffffffffffffffffffffffffffffffffff1673ffffffffffffffffffffffffffffffffffffffff16635fe226b46040518163ffffffff1660e01b815260040160206040518083038186803b15801561045857600080fd5b505afa15801561046c573d6000803e3d6000fd5b505050506040513d601f19601f820116820180604052508101906104909190610e92565b9050919050565b61049f610a0e565b6001600084815260200190815260200160002060060160009054906101000a900473ffffffffffffffffffffffffffffffffffffffff1673ffffffffffffffffffffffffffffffffffffffff166340731c24836040518263ffffffff1660e01b815260040161050e9190611359565b60006040518083038186803b15801561052657600080fd5b505afa15801561053a573d6000803e3d6000fd5b505050506040513d6000823e3d601f19601f820116820180604052508101906105639190610e28565b905092915050565b6040518060e001604052803373ffffffffffffffffffffffffffffffffffffffff1681526020018281526020018381526020014281526020016001815260200160005481526020016040516105bf90610a5a565b604051809103906000f0801580156105db573d6000803e3d6000fd5b5073ffffffffffffffffffffffffffffffffffffffff16815250600160008054815260200190815260200160002060008201518160000160006101000a81548173ffffffffffffffffffffffffffffffffffffffff021916908373ffffffffffffffffffffffffffffffffffffffff160217905550602082015181600101908051906020019061066c929190610a67565b506040820151816002019080519060200190610689929190610a67565b50606082015181600301556080820151816004015560a0820151816005015560c08201518160060160006101000a81548173ffffffffffffffffffffffffffffffffffffffff021916908373ffffffffffffffffffffffffffffffffffffffff16021790555090505060026000549080600181540180825580915050600190039060005260206000200160009091909190915055600160008082825461072f919061146d565b925050819055505050565b6001600084815260200190815260200160002060060160009054906101000a900473ffffffffffffffffffffffffffffffffffffffff1673ffffffffffffffffffffffffffffffffffffffff1663aacba8e88383336040518463ffffffff1660e01b81526004016107ad939291906112d7565b600060405180830381600087803b1580156107c757600080fd5b505af11580156107db573d6000803e3d6000fd5b50505050505050565b6001600083815260200190815260200160002060060160009054906101000a900473ffffffffffffffffffffffffffffffffffffffff1673ffffffffffffffffffffffffffffffffffffffff1663e313f63182336040518363ffffffff1660e01b81526004016108559291906112a7565b600060405180830381600087803b15801561086f57600080fd5b505af1158015610883573d6000803e3d6000fd5b505050505050565b606060028054806020026020016040519081016040528092919081815260200182805480156108d957602002820191906000526020600020905b8154815260200190600101908083116108c5575b5050505050905090565b60606001600083815260200190815260200160002060060160009054906101000a900473ffffffffffffffffffffffffffffffffffffffff1673ffffffffffffffffffffffffffffffffffffffff166316bc55c46040518163ffffffff1660e01b815260040160006040518083038186803b15801561096157600080fd5b505afa158015610975573d6000803e3d6000fd5b505050506040513d6000823e3d601f19601f8201168201806040525081019061099e9190610d7b565b9050919050565b6040518060e00160405280600073ffffffffffffffffffffffffffffffffffffffff1681526020016060815260200160608152602001600081526020016000815260200160008152602001600073ffffffffffffffffffffffffffffffffffffffff1681525090565b6040518060c00160405280600073ffffffffffffffffffffffffffffffffffffffff16815260200160608152602001600081526020016060815260200160008152602001600081525090565b610ea58061169f83390190565b828054610a739061156f565b90600052602060002090601f016020900481019282610a955760008555610adc565b82601f10610aae57805160ff1916838001178555610adc565b82800160010185558215610adc579182015b82811115610adb578251825591602001919060010190610ac0565b5b509050610ae99190610aed565b5090565b5b80821115610b06576000816000905550600101610aee565b5090565b6000610b1d610b1884611399565b611374565b90508083825260208201905082856020860282011115610b3c57600080fd5b60005b85811015610b6c5781610b528882610d66565b845260208401935060208301925050600181019050610b3f565b5050509392505050565b6000610b89610b84846113c5565b611374565b905082815260208101848484011115610ba157600080fd5b610bac84828561152d565b509392505050565b6000610bc7610bc2846113c5565b611374565b905082815260208101848484011115610bdf57600080fd5b610bea84828561153c565b509392505050565b600081519050610c0181611670565b92915050565b600082601f830112610c1857600080fd5b8151610c28848260208601610b0a565b91505092915050565b600082601f830112610c4257600080fd5b8135610c52848260208601610b76565b91505092915050565b600082601f830112610c6c57600080fd5b8151610c7c848260208601610bb4565b91505092915050565b600060c08284031215610c9757600080fd5b610ca160c0611374565b90506000610cb184828501610bf2565b600083015250602082015167ffffffffffffffff811115610cd157600080fd5b610cdd84828501610c07565b6020830152506040610cf184828501610d66565b604083015250606082015167ffffffffffffffff811115610d1157600080fd5b610d1d84828501610c5b565b6060830152506080610d3184828501610d66565b60808301525060a0610d4584828501610d66565b60a08301525092915050565b600081359050610d6081611687565b92915050565b600081519050610d7581611687565b92915050565b600060208284031215610d8d57600080fd5b600082015167ffffffffffffffff811115610da757600080fd5b610db384828501610c07565b91505092915050565b60008060408385031215610dcf57600080fd5b600083013567ffffffffffffffff811115610de957600080fd5b610df585828601610c31565b925050602083013567ffffffffffffffff811115610e1257600080fd5b610e1e85828601610c31565b9150509250929050565b600060208284031215610e3a57600080fd5b600082015167ffffffffffffffff811115610e5457600080fd5b610e6084828501610c85565b91505092915050565b600060208284031215610e7b57600080fd5b6000610e8984828501610d51565b91505092915050565b600060208284031215610ea457600080fd5b6000610eb284828501610d66565b91505092915050565b60008060408385031215610ece57600080fd5b6000610edc85828601610d51565b925050602083013567ffffffffffffffff811115610ef957600080fd5b610f0585828601610c31565b9150509250929050565b600080600060608486031215610f2457600080fd5b6000610f3286828701610d51565b935050602084013567ffffffffffffffff811115610f4f57600080fd5b610f5b86828701610c31565b9250506040610f6c86828701610d51565b9150509250925092565b60008060408385031215610f8957600080fd5b6000610f9785828601610d51565b9250506020610fa885828601610d51565b9150509250929050565b6000610fbe8383611267565b60208301905092915050565b610fd3816114c3565b82525050565b610fe2816114c3565b82525050565b6000610ff382611406565b610ffd8185611429565b9350611008836113f6565b8060005b838110156110395781516110208882610fb2565b975061102b8361141c565b92505060018101905061100c565b5085935050505092915050565b600061105182611406565b61105b818561143a565b9350611066836113f6565b8060005b8381101561109757815161107e8882610fb2565b97506110898361141c565b92505060018101905061106a565b5085935050505092915050565b6110ad81611509565b82525050565b6110bc816114d5565b82525050565b60006110cd82611411565b6110d7818561144b565b93506110e781856020860161153c565b6110f08161165f565b840191505092915050565b600061110682611411565b611110818561145c565b935061112081856020860161153c565b6111298161165f565b840191505092915050565b600060c08301600083015161114c6000860182610fca565b50602083015184820360208601526111648282610fe8565b91505060408301516111796040860182611267565b506060830151848203606086015261119182826110c2565b91505060808301516111a66080860182611267565b5060a08301516111b960a0860182611267565b508091505092915050565b600060e0830160008301516111dc6000860182610fca565b50602083015184820360208601526111f482826110c2565b9150506040830151848203604086015261120e82826110c2565b91505060608301516112236060860182611267565b50608083015161123660808601826110b3565b5060a083015161124960a0860182611267565b5060c083015161125c60c08601826110a4565b508091505092915050565b611270816114ff565b82525050565b61127f816114ff565b82525050565b6000602082019050818103600083015261129f8184611046565b905092915050565b600060408201905081810360008301526112c181856110fb565b90506112d06020830184610fd9565b9392505050565b600060608201905081810360008301526112f181866110fb565b90506113006020830185611276565b61130d6040830184610fd9565b949350505050565b6000602082019050818103600083015261132f8184611134565b905092915050565b6000602082019050818103600083015261135181846111c4565b905092915050565b600060208201905061136e6000830184611276565b92915050565b600061137e61138f565b905061138a82826115a1565b919050565b6000604051905090565b600067ffffffffffffffff8211156113b4576113b3611630565b5b602082029050602081019050919050565b600067ffffffffffffffff8211156113e0576113df611630565b5b6113e98261165f565b9050602081019050919050565b6000819050602082019050919050565b600081519050919050565b600081519050919050565b6000602082019050919050565b600082825260208201905092915050565b600082825260208201905092915050565b600082825260208201905092915050565b600082825260208201905092915050565b6000611478826114ff565b9150611483836114ff565b9250827fffffffffffffffffffffffffffffffffffffffffffffffffffffffffffffffff038211156114b8576114b76115d2565b5b828201905092915050565b60006114ce826114df565b9050919050565b6000819050919050565b600073ffffffffffffffffffffffffffffffffffffffff82169050919050565b6000819050919050565b60006115148261151b565b9050919050565b6000611526826114df565b9050919050565b82818337600083830152505050565b60005b8381101561155a57808201518184015260208101905061153f565b83811115611569576000848401525b50505050565b6000600282049050600182168061158757607f821691505b6020821081141561159b5761159a611601565b5b50919050565b6115aa8261165f565b810181811067ffffffffffffffff821117156115c9576115c8611630565b5b80604052505050565b7f4e487b7100000000000000000000000000000000000000000000000000000000600052601160045260246000fd5b7f4e487b7100000000000000000000000000000000000000000000000000000000600052602260045260246000fd5b7f4e487b7100000000000000000000000000000000000000000000000000000000600052604160045260246000fd5b6000601f19601f8301169050919050565b611679816114c3565b811461168457600080fd5b50565b611690816114ff565b811461169b57600080fd5b5056fe6080604052610e92806100136000396000f3fe608060405234801561001057600080fd5b50600436106100575760003560e01c806316bc55c41461005c57806340731c241461007a5780635fe226b4146100aa578063aacba8e8146100c8578063e313f631146100e4575b600080fd5b610064610100565b6040516100719190610abe565b60405180910390f35b610094600480360381019061008f91906108a8565b610158565b6040516100a19190610b00565b60405180910390f35b6100b26102e3565b6040516100bf9190610b22565b60405180910390f35b6100e260048036038101906100dd9190610841565b6102ec565b005b6100fe60048036038101906100f991906107ed565b610450565b005b6060600280548060200260200160405190810160405280929190818152602001828054801561014e57602002820191906000526020600020905b81548152602001906001019080831161013a575b5050505050905090565b61016061061f565b600160008381526020019081526020016000206040518060c00160405290816000820160009054906101000a900473ffffffffffffffffffffffffffffffffffffffff1673ffffffffffffffffffffffffffffffffffffffff1673ffffffffffffffffffffffffffffffffffffffff1681526020016001820180548060200260200160405190810160405280929190818152602001828054801561022357602002820191906000526020600020905b81548152602001906001019080831161020f575b505050505081526020016002820154815260200160038201805461024690610cde565b80601f016020809104026020016040519081016040528092919081815260200182805461027290610cde565b80156102bf5780601f10610294576101008083540402835291602001916102bf565b820191906000526020600020905b8154815290600101906020018083116102a257829003601f168201915b50505050508152602001600482015481526020016005820154815250509050919050565b60008054905090565b8160005411610330576040517f08c379a000000000000000000000000000000000000000000000000000000000815260040161032790610ae0565b60405180910390fd5b60016000838152602001908152602001600020600101600054908060018154018082558091505060019003906000526020600020016000909190919091505561037c600054848361055b565b600160008054815260200190815260200160002060008201518160000160006101000a81548173ffffffffffffffffffffffffffffffffffffffff021916908373ffffffffffffffffffffffffffffffffffffffff16021790555060208201518160010190805190602001906103f392919061066b565b5060408201518160020155606082015181600301908051906020019061041a9291906106b8565b506080820151816004015560a0820151816005015590505060016000808282546104449190610c0a565b92505081905550505050565b61045d600054838361055b565b600160008054815260200190815260200160002060008201518160000160006101000a81548173ffffffffffffffffffffffffffffffffffffffff021916908373ffffffffffffffffffffffffffffffffffffffff16021790555060208201518160010190805190602001906104d492919061066b565b506040820151816002015560608201518160030190805190602001906104fb9291906106b8565b506080820151816004015560a082015181600501559050506002600054908060018154018082558091505060019003906000526020600020016000909190919091505560016000808282546105509190610c0a565b925050819055505050565b61056361061f565b6040518060c001604052808373ffffffffffffffffffffffffffffffffffffffff168152602001600067ffffffffffffffff8111156105cb577f4e487b7100000000000000000000000000000000000000000000000000000000600052604160045260246000fd5b6040519080825280602002602001820160405280156105f95781602001602082028036833780820191505090505b508152602001858152602001848152602001428152602001600181525090509392505050565b6040518060c00160405280600073ffffffffffffffffffffffffffffffffffffffff16815260200160608152602001600081526020016060815260200160008152602001600081525090565b8280548282559060005260206000209081019282156106a7579160200282015b828111156106a657825182559160200191906001019061068b565b5b5090506106b4919061073e565b5090565b8280546106c490610cde565b90600052602060002090601f0160209004810192826106e6576000855561072d565b82601f106106ff57805160ff191683800117855561072d565b8280016001018555821561072d579182015b8281111561072c578251825591602001919060010190610711565b5b50905061073a919061073e565b5090565b5b8082111561075757600081600090555060010161073f565b5090565b600061076e61076984610b62565b610b3d565b90508281526020810184848401111561078657600080fd5b610791848285610c9c565b509392505050565b6000813590506107a881610e2e565b92915050565b600082601f8301126107bf57600080fd5b81356107cf84826020860161075b565b91505092915050565b6000813590506107e781610e45565b92915050565b6000806040838503121561080057600080fd5b600083013567ffffffffffffffff81111561081a57600080fd5b610826858286016107ae565b925050602061083785828601610799565b9150509250929050565b60008060006060848603121561085657600080fd5b600084013567ffffffffffffffff81111561087057600080fd5b61087c868287016107ae565b935050602061088d868287016107d8565b925050604061089e86828701610799565b9150509250925092565b6000602082840312156108ba57600080fd5b60006108c8848285016107d8565b91505092915050565b60006108dd8383610aa0565b60208301905092915050565b6108f281610c60565b82525050565b600061090382610ba3565b61090d8185610bc6565b935061091883610b93565b8060005b8381101561094957815161093088826108d1565b975061093b83610bb9565b92505060018101905061091c565b5085935050505092915050565b600061096182610ba3565b61096b8185610bd7565b935061097683610b93565b8060005b838110156109a757815161098e88826108d1565b975061099983610bb9565b92505060018101905061097a565b5085935050505092915050565b60006109bf82610bae565b6109c98185610be8565b93506109d9818560208601610cab565b6109e281610dce565b840191505092915050565b60006109fa602a83610bf9565b9150610a0582610ddf565b604082019050919050565b600060c083016000830151610a2860008601826108e9565b5060208301518482036020860152610a4082826108f8565b9150506040830151610a556040860182610aa0565b5060608301518482036060860152610a6d82826109b4565b9150506080830151610a826080860182610aa0565b5060a0830151610a9560a0860182610aa0565b508091505092915050565b610aa981610c92565b82525050565b610ab881610c92565b82525050565b60006020820190508181036000830152610ad88184610956565b905092915050565b60006020820190508181036000830152610af9816109ed565b9050919050565b60006020820190508181036000830152610b1a8184610a10565b905092915050565b6000602082019050610b376000830184610aaf565b92915050565b6000610b47610b58565b9050610b538282610d10565b919050565b6000604051905090565b600067ffffffffffffffff821115610b7d57610b7c610d9f565b5b610b8682610dce565b9050602081019050919050565b6000819050602082019050919050565b600081519050919050565b600081519050919050565b6000602082019050919050565b600082825260208201905092915050565b600082825260208201905092915050565b600082825260208201905092915050565b600082825260208201905092915050565b6000610c1582610c92565b9150610c2083610c92565b9250827fffffffffffffffffffffffffffffffffffffffffffffffffffffffffffffffff03821115610c5557610c54610d41565b5b828201905092915050565b6000610c6b82610c72565b9050919050565b600073ffffffffffffffffffffffffffffffffffffffff82169050919050565b6000819050919050565b82818337600083830152505050565b60005b83811015610cc9578082015181840152602081019050610cae565b83811115610cd8576000848401525b50505050565b60006002820490506001821680610cf657607f821691505b60208210811415610d0a57610d09610d70565b5b50919050565b610d1982610dce565b810181811067ffffffffffffffff82111715610d3857610d37610d9f565b5b80604052505050565b7f4e487b7100000000000000000000000000000000000000000000000000000000600052601160045260246000fd5b7f4e487b7100000000000000000000000000000000000000000000000000000000600052602260045260246000fd5b7f4e487b7100000000000000000000000000000000000000000000000000000000600052604160045260246000fd5b6000601f19601f8301169050919050565b7f50726f626c656d20616464696e6720636f6d6d656e742c20696e76616c69642060008201527f5f706172656e7449642e00000000000000000000000000000000000000000000602082015250565b610e3781610c60565b8114610e4257600080fd5b50565b610e4e81610c92565b8114610e5957600080fd5b5056fea26469706673582212200249b516c98bc42b8984ee88d8436f7fa6e6102d23bcab8c02af7f566e661aaf64736f6c63430008040033a2646970667358221220bf8a83d5223666f1920fe6afe06f24fb3bf84885924e7e8e1186b72c5bda5a0464736f6c63430008040033",
  "linkReferences": {},
  "deployedLinkReferences": {}
}